:020000040000FA
:10800000E02500204D830000C1BB0000FB82000082
:10801000598300005B8300005D83000000000000C6
:108020000000000000000000000000005F8300006E
:1080300061830000000000004782000019C70000B3
:10804000F9BC00006DBE000099CC00006783000001
:108050006783000067830000D5AA000067830000E3
:108060004DCA00006783000067830000678300003B
:108070006783000067830000678300006783000058
:108080006783000067830000678300006783000048
:108090006783000067830000678300006783000038
:1080A000678300006783000079CA000067830000CF
:1080B00067830000678300000000000000000000EC
:1080C0006783000067830000678300006783000008
:1080D00067830000678300006783000000000000E2
:1080E0000000000000000000000000000000000090
:1080F0000000000000000000000000000000000080
:10810000000000000000000000000000000000006F
:10811000000000000000000000000000000000005F
:10812000000000000000000000000000000000004F
:10813000000000000000000000000000000000003F
:10814000000000000000000000000000000000002F
:10815000000000000000000000000000000000001F
:10816000000000000000000000000000000000000F
:1081700000000000000000000000000000000000FF
:1081800000000000000000000000000000000000EF
:1081900000000000000000000000000000000000DF
:1081A00000000000000000000000000000000000CF
:1081B00000000000000000000000000000000000BF
:1081C00000000000000000000000000000000000AF
:1081D000000000000000000000000000000000009F
:1081E000000000000000000000000000000000008F
:1081F000000000000000000000000000000000007F
:10820000DFF810D001F0B4F800480047C150010079
:10821000AFF30080E0250020EFF3108072B67047C6
:1082200080F310887047434A1368012B04D04FF045
:1082300001031360404A1060404A116040484FF00B
:10824000805101607047EFF3108272B639480168BF
:1082500051B34FF0000101603748016891B1EFF36D
:1082600009811EF0100F08BF21ED108B21E9F00FDE
:108270004FF000041EF0100F08BF012441F8044D18
:10828000006801602D490968096808C9B1E8F00F64
:10829000002B18BFB1EC108B81F309884EF0100E43
:1082A000002B18BF2EF0100E82F310884EF0040E33
:1082B000704722490860EFF3148222F0040282F32F
:1082C00014881D494FF0000008601A494FF0010062
:1082D00008601C484FF47F01D0F8002041EA0201F9
:1082E000016017484FF0805101601748006800682E
:1082F00080F3088861B662B670471EF0040F0CBFA9
:10830000EFF30880EFF3098020E9F00F40F804ED67
:1083100040F804ED1EF0040F0CBF80F3088880F3D2
:10832000098800B510F060F95DF804EB4EF0040E1A
:108330007047000020030020180300201C030020C9
:1083400004ED00E020ED00E008ED00E00648804785
:1083500006480047FEE7FEE7FEE7FEE7FEE7FEE72A
:10836000FEE7FEE7FEE7FEE775C7000001820000BA
:108370002DE9F05F0546002092469B46884606465A
:10838000814640241BE0284641464746224600F0ED
:10839000E6FD53465A46C01A914110D3114618467D
:1083A000224600F0CDFD2D1A67EB01084F4622460C
:1083B0000120002100F0C4FD17EB00094E41201EF2
:1083C000A4F10104DFDC484631462A464346BDE8B5
:1083D000F09F00000048704774D0010010B50446BB
:1083E000FFF7F8FF0068005D00F0010010BD40EAF3
:1083F00001039B0703D009E008C9121F08C0042A23
:10840000FAD203E011F8013B00F8013B521EF9D209
:108410007047D2B201E000F8012B491EFBD2704731
:108420000022F6E710B513460A4604461946FFF740
:10843000F0FF204610BD10B5044604E00B7800F8AC
:10844000013B03B1491C521EF8D2204610BDCAB2EE
:10845000401E10F8011F8A4202D00029F9D10020E5
:108460007047421C10F8011B0029FBD1801A70478D
:1084700010B5002200E0521C835C8C5CA34201D149
:10848000002BF8D1D8B2E1B2401A10BD30B5054684
:108490000020034600E05B1C934205D2EC5CC85C04
:1084A000201A01D1002CF6D130BD00000FB400B568
:1084B0008DB010A909900B9000914FF0FF300A90F9
:1084C00000200C9005480690054807906A4609A8C8
:1084D0000F9900F07BFD0DB05DF814FBE98F0000F3
:1084E000079000002DE9FF5F1D464FF0FF3BD5E9E7
:1084F000014691465F464FF00008A9697F1C01982C
:108500008847296A824688470028F6D1BAF1FF3F9A
:108510000CD024F4C064002E19DD600614D5BAF125
:108520002B0F09D0BAF12D0F0ED103E0584604B03D
:10853000BDE8F09F44F48064A9697F1C01988847D6
:10854000761E8246002E02DDBAF1300F03D0B9F15B
:10855000000F26D032E0A969761E44F400747F1C17
:10856000019888478246002E05DDBAF1780F06D0C3
:10857000BAF1580F03D0B9F1000F10D01EE0B9F1D5
:10858000000F02D0B9F1100F18D1A969761E24F49A
:1085900000747F1C019888478246102002E0082062
:1085A00000E00A20814609E008FB0908A969761E57
:1085B00044F400747F1C019888478246002E05DD34
:1085C0004946504600F0EDFC0028EDDAE9690198D3
:1085D0008847A00502D46FF00100A8E7E00725D185
:1085E000600613D5600502D5C8F1000000E04046E2
:1085F00029680A1D2A600968220501D5087015E05E
:10860000220701D5088011E008600FE02868011DED
:1086100029600068210502D580F8008006E0210766
:1086200002D5A0F8008001E0C0F8008038467EE75F
:108630002DE9FF5FD2E901A74FF000089169994643
:108640001446DDF838B0464601988847054659EA91
:108650000B0005D009E0A169761C01988847054602
:10866000216A284688470028F5D1681C03D05FEAB4
:10867000CA7005D015E04FF0FF3004B0BDE8F09FA0
:108680002068011D2160D0F800800AE05FEACA700E
:1086900001D108F8015BA169761C7F1E019888470B
:1086A0000546002F1ADD681C18D0B9F1000F0DD057
:1086B000E81705EBD060421120F01F0059F8221096
:1086C0002A1A012090400142E0D107E0BBF1000FDF
:1086D000DCD1216A284688470028D7D0E169019873
:1086E0008847BBF1000F07D1002E05DD5FEACA7095
:1086F00002D1002188F80010A068B84203DDBBF168
:10870000000F03D017B16FF00100B6E73046B4E7B1
:108710002DE9FF4F087883B09946FF2805D0491C02
:108720002D2804D00024002008E000200BE00124C4
:10873000F9E700EB800003EB4000491C0B78FF2BAE
:10874000F7D104B1404200230293147819461D4624
:108750002D2C01D02B2C04D1521C2D2C13D00024F5
:108760000294AA461478FF2C0FD00A25A3FB0578A3
:1087700001FB05814FF0000C03FB0C11521CE319A7
:108780004AEB0101EEE70124EAE7814453EA0100E4
:1087900002D019F5C87F06DA03980021C0E900115C
:1087A00007B0BDE8F08F0025AE4E2F46DFF8B88247
:1087B000184600F084FDCDE90001B9F1000002DAAD
:1087C000C9F1000400E004460023A74A1AEB030B9A
:1087D00042EB045A12E0E00707D02A4633463846F7
:1087E000414600F05DFA074688462A463346104661
:1087F000194600F055FA05460E466410002CEAD1E1
:10880000DDE90001B9F1000F5A46534606DA00F0DF
:10881000B9FA3A46434600F0B5FA05E000F040FAEE
:108820003A46434600F03CFA029A0AB181F0004110
:10883000039AC2E90001B3E72DE9FF4F1F468DB04F
:10884000D7E901464FF0FF382E2045464FF000098A
:108850000B90B9696D1C0E988847396A8246884723
:108860000028F6D1BAF1FF3F0AD024F4D064002EDC
:1088700011DDBAF12B0F08D0BAF12D0F0BD102E0A8
:10888000404611B08DE744F48064B9696D1C0E98C0
:1088900088478246761E6946600501D52D2000E096
:1088A0002B208DF8000001F1010B0DF1200809E0EB
:1088B000B9696D1C0E98884782460F9844F400747D
:1088C000761E0560002E02DDBAF1300FF0D00B9954
:1088D0008A453ED144F0800406E00F99681CA9F156
:1088E000010944F400740860B9696D1C761E0E9885
:1088F000884782463028F0D02BE00B998A4505D175
:10890000200603D444F08004761E18E0504606F09A
:108910004DFB08B30DF11301761E44F400748B4532
:1089200008D2AAF130000BF8010B200607D5A9F1F7
:10893000010003E0200602D409F101008146A005F0
:1089400002D50F99681C0860B9696D1C0E9888479C
:108950008246002ED1DC53E0002E51DDBAF1650FC6
:1089600002D0BAF1450F4BD1A00549D5B9696D1CAC
:1089700024F44074761E0E9888478246002E0CDD43
:108980002B2804D0BAF12D0F07D144F48074B969B3
:108990006D1C0E9888478246761EE00501D52D2174
:1089A00000E02B2108F8011BCDF82C8021E00DF10F
:1089B0002901761E44F4007488450CD2AAF13000D7
:1089C00010F0FF0088F8000002D10B99884509D902
:1089D00008F1010806E0E00501D5244801E042F273
:1089E0000F708146B9696D1C0E98884782460F98B2
:1089F0000560002E04DD504606F0D8FA0028D6D1D6
:108A0000F9690E988847FF208BF8000088F800006D
:108A10000020069007904B466A4608A906A8FFF773
:108A200077FEA00502D46FF001002AE714F0240FAE
:108A30000AD0E00714D1DDE906123868031D3B6057
:108A40000068C0E900120BE0DDE9060100F046FA1B
:108A50000146E00704D13868021D3A6000680160F1
:108A600028460EE7000014400000F03FF1D8FFFF59
:108A70002DE9F04791460F4680460446002614F83B
:108A8000015B2DB1FFF7A6FC0068405DC007F6D181
:108A90002B2D02D02D2D18D0641E4A463946204673
:108AA00000F0C2FA27B13968A14201D1C7F80080AD
:108AB00071054FF002040BD54042002803DD04F09D
:108AC000E7FA0460A007BDE8F08746F48066E4E7B3
:108AD0000028F8DA04F0DCFA04606FF00040F2E7F6
:108AE0002DE9F05F93460F4680460446002604F0C9
:108AF000CFFAD0F80090824614F8015B2DB1FFF751
:108B000069FC0068405DC007F6D12B2D02D02D2DE9
:108B10001AD0641E0021CAF800105A463946204671
:108B200000F082FA014627B13868A04201D1C7F8A7
:108B30000080DAF80000022809D0CAF80090700519
:108B400005D54842BDE8F09F46F48066E2E7084656
:108B5000F8E72DE9FE4F804681EA0300C00F0C467E
:108B6000009021F0004123F00045B8EB0200A9413C
:108B700005D24046214690461C460B46024623F04D
:108B80000040104347D0270DC7F30A00C3F30A5132
:108B90000290401A019040286BDAC3F3130040F4AE
:108BA000801B0098924620B10023D2EB030A63EBAE
:108BB0000B0B01985946C0F14002504600F0C0F935
:108BC00006460D4650465946019A00F0D8F910EB7A
:108BD00008006141002487EA115284EAE7731A43CE
:108BE00040D0009A62B3019A012A4FEA075215DC7D
:108BF000001B61EB02014FF0004202EA0752CDE98F
:108C00000042001C41F5801132462B4600F0A1FACB
:108C100003B0BDE8F08F40462146F9E7001B61EB49
:108C20000201001C41F5801300185B412018A2F5D9
:108C3000001747EB030140EAD570B6196D4111E00A
:108C40006D084FEA360645EAC0754FEA0752001B29
:108C500061EB0201001C41F5801149084FEA300028
:108C60000019514132462B4603B0BDE8F04F00F0E9
:108C700061BA0098012240000023D0EB020263EBAE
:108C8000E073009821464FEAE074B8EB000061EB16
:108C90000401E9E783F000435BE781F0004158E716
:108CA0002DE9FE4F81EA030404F0004421F0004165
:108CB00000944FF0000B23F0004350EA01045ED013
:108CC00052EA03045BD0C3F30A54C1F30A552C449F
:108CD000A4F2F3340194A0FB0254C1F3130141F454
:108CE0008011C3F3130343F4801301FB024400FB20
:108CF000034E840A970A44EA815447EA8357A4FB47
:108D0000076802958D0A05FB07854FEA932C04FB43
:108D10000C542705029D4FEA065847EA1637B5EB73
:108D200008056EEB070C870E920E47EA811742EAA0
:108D30008312A7FB0201B6EB0B0164EB00042B0DC1
:108D400043EA0C335E1844EB1C50DA465146E7FB0D
:108D50000201C5F313044FEA0B3343EA14534FEAFD
:108D60000432019C43EA0603A4F10C040294009C23
:108D7000CDE900B400F0EDF903B0BDE8F08F0020BC
:108D80000146F9E72DE9F04D81EA030404F0004BB8
:108D900021F0004514464FF0000A23F0004150EA4C
:108DA000050220D054EA01021DD0C5F30A5702463D
:108DB000C5F31303C1F31300C1F30A5640F4801541
:108DC00043F48013A7EB0608101BD64608F2FD38C3
:108DD00073EB050002D308F1010801E092185B4132
:108DE000B8F1000F03DA00200146BDE8F08D002045
:108DF0004FF48011064684460EE0171B73EB0507FF
:108E000005D3121B63EB050306434CEA010C49082A
:108E10004FEA300092185B4150EA0107EDD152EA67
:108E2000030012D082EA040083EA0501084305D05A
:108E3000101BAB4106D20122002306E000224FF0B6
:108E4000004302E06FF0010253101AEB06004CEBF6
:108E5000085110EB0A0041EB0B01BDE8F04D00F0AA
:108E600069B90EB5C10F80EAE0700844CA07002155
:108E700040F233438DE80E000A460B4600F069F9D4
:108E800003B000BD00F0004230F000400AD0C10D38
:108E900001F56071C0F3160042EA0151C2084007B3
:108EA00011437047002001467047000030B5041E92
:108EB00071F1000404DB4FF00044404264EB010117
:108EC000141E73F1000405DB1C464FF000435242B0
:108ED00063EB04038B4208BF824230BD01F00043C4
:108EE00030B421F0004150EA010206D00A0DA2F58B
:108EF0006072C1F31301002A02DC30BC002070470D
:108F0000440F44EAC104C100E01830BC00EBC25079
:108F100000F0D9B830B50B460146002020220124CC
:108F200009E021FA02F59D4205D303FA02F5491B37
:108F300004FA02F52844151EA2F10102F1DC30BD4D
:108F4000202A04DB203A00FA02F100207047914009
:108F5000C2F1200320FA03F3194390407047202AFE
:108F600004DB203A21FA02F00021704721FA02F3D3
:108F7000D040C2F120029140084319467047202A90
:108F800006DBCB17203A41FA02F043EAE07306E031
:108F900041FA02F3D040C2F1200291400843194641
:108FA00070473A2800D2303820F02002412A01D3FD
:108FB000A2F13700884201D34FF0FF307047000024
:108FC000026811441378016018467047D160044963
:108FD00051610449116200211161114600F0DAB9B2
:108FE000C18F0000DD830000426842B1016811F8C2
:108FF000013B23B1521EC0E90012184670470121FF
:10900000C160881E704742685AB1C368016843B99D
:1090100083688B4205D0491E521CC0E90012002013
:1090200070474FF0FF3070472DE9F05F82460078BF
:10903000002715468B460AF10104B946302801D0B5
:109040009DB113E014F8010B0127782803D05828AC
:1090500001D045B10AE00DB1102D07D10027102530
:1090600014F8010B02E0082500E00A250026B046AE
:109070000EE005FB080005FB06F1012701EB104699
:109080001FFA80F8B6F5803F00D3B94614F8010BFB
:109090002946FFF786FF0028EBDABBF1000F05D069
:1090A0000FB1641E00E05446CBF80040B9F1000F48
:1090B00006D003F0EDFF02210160C81EBDE8F09F5D
:1090C00048EA0640FAE70029A8BF7047401C49005B
:1090D00008BF20F00100704710B4B0FA80FC00FA1D
:1090E0000CF050EA010404BF10BC704749B1CCF148
:1090F000200421FA04F411FA0CF118BF01212143D4
:109100000843A3EB0C01CB1D4FEA00614FEA10208E
:1091100042BF002010BC704700EBC3501044002930
:10912000A4BF10BC7047401C490008BF20F00100DC
:1091300010BC704710B5141E73F1000408DA401C0F
:1091400041F1000192185B411A4301D120F0010066
:1091500010BD2DE9F04D92469B4611B1B1FA81F256
:1091600002E0B0FA80F220329046FFF7E9FE0446B2
:109170000F4640EA0A0041EA0B0153465A460843AB
:1091800013D0114653EA010019D0C8F140025046ED
:10919000FFF7E5FE05460E46504659464246FFF7A4
:1091A000CFFE084305D0012004E020463946BDE843
:1091B000F08D0020054346EAE0762C4337430A98B9
:1091C0006305E40AA0EB08000022FD0A44EA4754C4
:1091D0000A3002D500200146E9E70105101969416E
:1091E000DDE9084500196941BDE8F04DA2E770B519
:1091F00021F0004303430CD0C1F30A550024D5EB02
:10920000040564EB0403D617AD1AB34102DB00205A
:10921000014670BD201841EB025170BD2DE9F04DA3
:1092200000231A461B1A8A4103DB00200146BDE8D1
:10923000F08DC1F30A52C1F3130141F480154FF0D0
:10924000000BD10702D100186D41521E00270446C1
:1092500040F2FF11384601EB620A3E468046024664
:1092600000204FF48011FFF77AFEC2197141BB183C
:1092700046EB0100B4EB030C75EB000C04D3E41ACD
:1092800065EB000517460E46241908F101006D41F3
:1092900080463428E3DDF91946EB0600091BA84196
:1092A00003D24FF0FF32134601E0002213461BEBBE
:1092B000070046EB0A51BDE8F04DFFF73BBF0EB586
:1092C00040F2334202920022CDE900221346FFF71A
:1092D00040FF03B000BDC1F30A52C1F3130140F2D5
:1092E000FF3341F480119A4202DA002001467047B0
:1092F00040F233439A42A2F2334202DC5242FFF779
:109300002EBEFFF71DBE000030B5041E71F1000433
:1093100004DB4FF00044404264EB0101141E73F182
:10932000000405DB1C464FF00043524263EB04038C
:10933000994208BF904230BD002801DBC0F10040D7
:10934000002901DBC1F10041814202D24FF000400F
:1093500004E04FF0005001D14FF0C0404FEA2062CE
:10936000EFF3008162F31F6181F300887047000012
:10937000064C074D06E0E06840F0010394E8070062
:1093800098471034AC42F6D3FEF73EFF04DF0100ED
:1093900024DF01002DE9F34F8BB04FF0000801F1FD
:1093A0000C000C464FF0010B46460DF1080A0190E7
:1093B0006269012101989047051E2DD0252D2CD0E2
:1093C000216A8847C0B16269012101989047216AEA
:1093D00088470028F7D1411E62690198904700E054
:1093E000761CA1690B988847216A88470028F7D125
:1093F000E1690B988847DBE7A1690B988847074626
:10940000A84201D1761CD3E7E1690B9888477F1CFD
:1094100002D1B8F1000F6FD047E1002762693D46E5
:109420003946019890472A2804D1626901210198A0
:1094300090470125DFF888926269012101989047E1
:10944000A0F130010A290AD24F45E5DC07EB87017C
:1094500000EB4107303FDFD445F01005ECE7E906AB
:1094600001D46FF000476C280AD04C2814D068282B
:1094700015D06A280DD074281CD07A281AD01DE087
:1094800062690121019890476C2802D045F00405DB
:1094900014E045F002050DE045F020050AE06269A0
:1094A000012101989047682802D045F0080505E0A1
:1094B00045F400656269012101989047C4E90157AC
:1094C00065283DD019DC58287AD00CDC452837D0E7
:1094D00004DC252826D0412831D131E046282FD080
:1094E00047282CD12CE05B2877D0612828D063282E
:1094F0007CD0642823D15AE0D1E06F2848D008DC22
:1095000066281DD067281BD0692821D06E2816D167
:1095100027E0702845D0732868D0752847D0782870
:109520000DD14DE0A1690B988847054625283FF4E9
:1095300069AFE1690B9888476D1C3FF46AAFB4E0EE
:1095400023466A466FF001000B99FFF775F99FE01B
:1095500045F040006060A80723464FF0000236D473
:109560003EE0E8077FF447AF2068011D21600068F6
:10957000290501D506701BE7290701D5068017E7E5
:10958000A90703D5F117C0E9006111E706600FE7ED
:1095900045F040006060A80723464FF0080216D44B
:1095A0001EE040F60E0125EA0100606016E045F07D
:1095B00040006060A80723464FF00A0207D40FE07E
:1095C00045F040006060A80708D5234610226FF0E0
:1095D00001000B99AFF300805AE007E02346102208
:1095E0006FF001000B99FEF77DFF51E04FF000098D
:1095F0004F464B46632802D05B2807D041E02079D4
:10960000C00601D40120A06001273AE0626901216F
:10961000019890475E2805D14FF0010962694946DB
:1096200001989047216939B900210A46534643F809
:109630002120491C0829FADBB0B3216969B9C11797
:1096400000EBD16253110AEB830122F01F02821A50
:1096500001200B68904003430B606269012101986F
:1096600090475D28E8D1B9F1000F09D0002051469C
:1096700051F82020D24341F82020401C0828F7DB75
:1096800002AB224600976FF001000B99FEF7D0FF66
:1096900000280CDA401C08D1BBF1000F05D04FF0B8
:1096A000FF300DB0BDE8F08FFFE74046F9E7E9076E
:1096B00001D108F1010806444FF0000B78E60000E4
:1096C000CCCCCC0C70B58C1810F8015B15F00703EE
:1096D00001D110F8013B2A1106D110F8012B03E04B
:1096E00010F8016B01F8016B5B1EF9D12B0705D453
:1096F0000023521E0DD401F8013BFAE710F8013B9C
:10970000CB1A921C03E013F8015B01F8015B521EB7
:10971000F9D5A142D8D3002070BD000010B508686B
:109720000A220021401CFFF7DBF904460A49A0F594
:10973000166088420DD8214608A009F0F7FB0A48B8
:10974000416CA14203D0446420300CF007FB0020A0
:1097500010BD012010BD0000207B1E004241554479
:109760003D25640D0A0000000809002000210122A7
:1097700000B5900782600260054A01F087FB01286E
:1097800004D0491C9142F8DB012000BD002000BD3F
:10979000A08601002DE9F0470868B2B000B3017857
:1097A0003D291DD14078532810D073280ED043286E
:1097B0000FD063280DD0522812D0722810D093A059
:1097C00009F0B4FB012032B0BDE8F08707F06EFF6E
:1097D00004E007F02BFF9CA009F0A8FB0020F2E7B3
:1097E0002BA802F01BFB1AA813F09EF825A80BF07B
:1097F000D5FC0DA811F0ECFA0DF000FE964F814655
:109800000120786495480668954D4FEA560805F59D
:109810003674D5F83432A269616920690DF1040A01
:109820008AE80F00E0680090A368626821688D48AC
:1098300009F07CFB20682168C0F30010C1F3C0016F
:10984000CDE900102068C0F380032068C0F3400217
:10985000206800F0010184A009F068FB7804D0F8CA
:109860000433D0F808218D4801688DA009F05EFB13
:10987000284606F08AFD6B8B0146D5E990028DE8FB
:109880000D00D5E98E2390A009F050FB95F89F318B
:1098900095F8A12195F8A011D5F84C028AE80F009F
:1098A00095F848020090D5E989139548D5F82C22FF
:1098B00009F03CFB226CE16BA06A8DE80700636A4B
:1098C000226AE1698F4809F031FB94F8392094F855
:1098D0003810606B8DE80700236BE26A49468A48BE
:1098E00009F024FB62688948016889A009F01EFB21
:1098F00002F0A6FA044609F09DFB01468A48026878
:1099000023468AA009F012FBD7F80022D7F80413E7
:10991000D7F840018DE807005048001F0168434612
:1099200032468C4809F002FB2EAB93E807008DE825
:109930000700DDE92B1388A02D9A09F0F7FA21AC76
:1099400094E80F0004AC84E80F00DDE91B23DDE997
:109950001F018DE80F00DDE91D238A481A9909F0DF
:10996000E5FADDE9290227998DE80700DDE92513ED
:1099700085A0289A09F0DAFA9DF8640009AC9DF8F0
:1099800065309DF862209DF8631084E80F0015ACE7
:10999000BDF8600094E80E00CDE90730CDE905126E
:1099A00011AC94E80F0001AC84E80F00109800900F
:1099B0000DAC804894E80E0009F0B8FA7EA012F0D1
:1099C00067FC82467EA012F063FC81467EA012F006
:1099D0005FFC80467DA012F05BFC07467CA012F085
:1099E00057FC06467BA012F053FC05467AA012F005
:1099F0004FFC04460BF07CFD8DE8C00701462B466A
:109A00002246774809F092FAE8E60000757361672C
:109A1000653A2041542B44494147202F2041542B83
:109A2000444941473D5246202F2041542B4449414F
:109A3000473D535441434B202F2041542B4449412F
:109A4000473D434C520D0A006469616720636C65B1
:109A5000617265640D0A000000A0014044A5014048
:109A6000EC04002098D1010072657365745F62692F
:109A700074732070696E3D257520646F673D257590
:109A800020737265713D2575206C6F636B75703D39
:109A90002575206F66663D25750D0A0000000020C3
:109AA000706F77657220706F667761726E3D257595
:109AB000206576743D257520696E74656E3D30783D
:109AC000253038780D0A000074646D61207374616C
:109AD00074653D25642067756172643D2575206D50
:109AE00061726B3D25752074783D2575207478640E
:109AF0006F6E653D2575206475653D25750D0A0001
:109B00004CD2010008D1010050D1010050040020C6
:109B100074335F697372207261773D2575206362CB
:109B20003D25750D0A000000501500407261646902
:109B30006F2073746174653D25642068775F73746A
:109B40006174653D257520667265713D25750D0A48
:109B50000000000010D301006472762073775F74F8
:109B6000783D25752F25752073775F72783D2575B3
:109B70002F25752073656E645F746F3D25752F25E5
:109B8000750D0A00F0D101006D61696E7120706F72
:109B900073743D25752F257520726563763D257597
:109BA0002F2575206661696C3D25752F25750D0A79
:109BB000000000009CD201007063746C0000000083
:109BC00068736933000000006F75740061740000F1
:109BD0006C656400726664006D61696E000000006F
:109BE000A0D0010070B50C460868FEF73AFC114E93
:109BF000114DA8B120680A220021401CFEF770FF19
:109C00000446022813D806F12000F4660CF0A6F8EA
:109C100055F82420214609A009F088F9002070BDDC
:109C2000F16E022900D9002155F82120F3E7012027
:109C300070BD000008090020AC03002044524946D2
:109C4000543D256420282573290D0A000548016824
:109C500041F0807101600448016841F00101016038
:109C600070470000FCED00E0001000E002F05EBD77
:109C700010B508680A220021401CFEF731FF064992
:109C80000028086C04D040F001000864002010BDDA
:109C900020F00100F9E70000080900202DE9F04755
:109CA000242009F08BF980460C2009F087F906463C
:109CB000242009F083F907460C2009F07FF9284990
:109CC000054624228A464046FEF791FB2548242279
:109CD00000F5C074D0F89C113160D0F8A01171600B
:109CE0001F49D0F8A401B060383189463846FEF7E4
:109CF0007EFB606D2860A06D6860E06DA8600AF072
:109D0000D9F80AF09FF9242241465046FEF76FFB2E
:109D10003068E06170682062B06860622422394671
:109D20004846FEF764FB286860656868A065A86817
:109D3000E0650C4820300CF011F8404609F0CEF8F0
:109D4000304609F0CBF8384609F0C8F8284609F043
:109D5000C5F80021084602F021FA0020BDE8F0878E
:109D6000800A0020080900202DE9F0478EB00C463B
:109D700064A009F0DBF867A12068FEF779FB67496A
:109D8000002801F1200A01F5B87189465FD06448C6
:109D9000011F0F1F3A1FCDE90627CDE9081014381F
:109DA000121F011F0B1F05920293CDE903100C38FF
:109DB000011FCDE900100B1F1C3A5AA12068FEF7C5
:109DC00075FB564D0446092864DB002295ED5E0ABA
:109DD000114648460BF03DF995ED5F0A012200213E
:109DE00048460BF036F995ED600A022200214846FC
:109DF0000BF02FF995ED610A0022012148460BF086
:109E000028F9012295ED620A114648460BF021F926
:109E100095ED630A0222012148460BF01AF995EDEF
:109E2000640A0022022148460BF013F995ED650AF9
:109E30000122022148460BF00CF9022295ED660A38
:109E4000114648460BF005F90C2C04D01DE00846DD
:109E500008F00EFE19E0A846D5F8A401FFF712F8A5
:109E600006460F46D8F8A001FFF70CF804460D4649
:109E7000D8F89C01FFF706F88DE8F00041EC100BD4
:109E800032A053EC102B09F051F8494638A007F0E6
:109E9000E7FC2EE09FED380A03210AA812F005FD29
:109EA0000A2008F0D3FFDFF87880002408F1D408F6
:109EB0004FF44876032241460AA812F0DEFB0A203E
:109EC00008F0C4FF641CB442F4DBF0EE080A9FED16
:109ED0002B0A39460AA812F0C3FC0321384612F0B7
:109EE00095FC95ED690AF7EE000A30EE600A85ED03
:109EF000690A50460BF032FF09F04AFD0EB000200F
:109F0000BDE8F087626567696E20464341320D0AFD
:109F1000000000003D524553455400000809002050
:109F2000AC0A00203D25662C25662C25662C25666E
:109F30002C25662C25662C25662C25662C25662C62
:109F400025662C25662C2566000000004143432031
:109F500062696173207365743A20252E34662C2063
:109F6000252E34662C20252E34660D0A00000000B4
:109F70006D61746C61620000000000000AD7A33AB2
:109F80002DE9F04F2DED0C8B9BB0002616AA08682A
:109F9000FEA1FEF78BFA032108460BF049F90321D5
:109FA0000A9008460BF044F9DFF8E4931190002181
:109FB000A9F8F612D9ED21CAB7EE00CA89ED21CA77
:109FC000032106200BF034F90F90042106200BF03A
:109FD0002FF90E90032104200BF02AF9149004218C
:109FE00003200BF025F99FEDEBDA10900321B0EE82
:109FF0004D0A0BA812F059FCB0EE4D0A032107A838
:10A0000012F053FCB7EE000A022200210F980BF069
:10A0100020F8BFEE000A022201210F980BF019F878
:10A02000B7EE000A012202210F980BF012F8BFEEE2
:10A03000000A012203210F980BF00BF8B7EE000A7B
:10A04000002204210F980BF004F8BFEE000A002252
:10A0500005210F980AF0FDFFCFA0169908F066FFC2
:10A06000002409F521702546A04627461890B9F826
:10A07000F602012805D9032207A8189912F0FDFA63
:10A080007F1CB9F8F602032833D1280731D400EE3B
:10A09000107AC84907A8F8EE400A12918CEE200AFF
:10A0A000F0EE080A12F0DCFBDDE91102002111F0EC
:10A0B00045F8DDE91102012111F040F8DDE9110256
:10A0C000022111F03BF80322BBA0129907F016FC05
:10A0D000AF4845F0080500F5D47117910C3900F52B
:10A0E000B870DFF8DCA2FFEE00AACB461591139002
:10A0F00003E00A2008F0AAFEB9E7032207A818998E
:10A1000012F0BBFABBF8F6027F1C01280AD9A94954
:10A110004FF000090322A4310BA812F0AEFA08F1A7
:10A12000010008E04FF00109B0EE4D0A03210BA831
:10A1300012F0BBFB0020804626B1012E11D0022E6A
:10A140000ED113E008F0D0FF1990B0EE4D0A0321B4
:10A1500007A812F0AAFB0027B9F1000F00D00126D2
:10A16000D4E0B9F1000FFBD10226CFE028067BD462
:10A1700008F0BAFF1999401A00EE100AB8EE408AAA
:10A1800008F0B4FF00EE100AB8EE400AC8EE008AEC
:10A1900018EE900AFEF776FE41EC100B89A053EC06
:10A1A000102B08F0C3FE00269FED89BBDFF8289234
:10A1B0009DED160A884907A8B8EEC00A80EE288AE5
:10A1C00000EE107AF8EE400A8CEE200AF0EE080A53
:10A1D00012F046FB09EB860090ED000AB0EEC00AD3
:10A1E00010EE100AFEF74EFE41EC190BB0EEC8AAB5
:10A1F0001AEE100AFEF746FE53EC192BFEF74AFD45
:10A2000053EC1B2BFEF752FE38D218EE901A514534
:10A2100034DD1AEE101A514530DD1AEE100A6F497E
:10A2200088422BDA09EB860090ED000A38EE400AEE
:10A23000B0EEC00A10EE100A504501DDB1EE488ABA
:10A240006548654A0C3800EB8600314680ED008A8F
:10A250000A9810F073FF18EE100AFEF713FE41EC97
:10A26000100B53EC102B00E04FE05DA008F05EFEF9
:10A27000032259495EA007F041FB03E0761CF6B2C9
:10A28000032E95D326B1012E06D0022E09D10CE063
:10A2900045F0010558A002E045F002055AA008F07B
:10A2A00045FEE843000704D02FE045F004055AA01E
:10A2B000F5E75DA008F03AFE032108460AF0B8FF72
:10A2C0000646032108460AF0B3FF434981460C398C
:10A2D00007F095F911990A9811F08AF830460A9911
:10A2E0000AF0D2F831464846179A0BF009F9484669
:10A2F0000EF0B0F830460EF0ADF80A980EF0AAF85D
:10A3000011980EF0A7F845F080050026B8F1460F29
:10A310003AD1200638D4DDED0B0A4FF000089FED4E
:10A32000490A03210BA880EE801A8DED001ADDED9D
:10A330000C0A80EE801A8DED011ADDED0D0A80EE1B
:10A34000801AB0EE4D0A8DED021A12F0AEFA8DEDC4
:10A3500003CA9DED000ADFF8F090B0EEC00A10EEDF
:10A36000100A484511DA9DED010AB0EEC00A10EE60
:10A37000101A49457ADA9DED020A30EE4C0AB0EE29
:10A38000C00A10EE101A61E072E16FE03D25640032
:10A390000809002000000000626567696E206163A3
:10A3A0006320616E64206779722063616C3A256472
:10A3B0000D0A0000DC0A0020626961733A000000A7
:10A3C000000040406674696D653A25660D0A00001C
:10A3D00000000000000008404C110020000048432D
:10A3E000746865726F793A2566200D0A00000000D6
:10A3F0006163743A000000004759522058202066DB
:10A400006F756E64210D0A0047595220592020664D
:10A410006F756E64210D0A00475952205A2020663C
:10A420006F756E64210D0A00616C6C206779722073
:10A430006461746120636F6C6C65637465640D0A9C
:10A440000000000000008C42CDCC4C3E49450DDAA6
:10A45000E0070BD144F001046A4600210E9810F089
:10A4600082FE042269469FA007F048FA9DED000A8B
:10A47000B0EEC00A10EE100A48451FDA9DED010A41
:10A48000B0EEC00A10EE101A494517DA9DED020A27
:10A4900030EE6A0AB0EEC00A10EE101A49450DDA25
:10A4A000A0070BD444F002046A4601210E9810F074
:10A4B0005AFE042269468CA007F020FA9DED000A9E
:10A4C000B0EEC00A10EE100A48451FDA9DED020AF0
:10A4D000B0EEC00A10EE101A494517DA9DED010AD8
:10A4E00030EE4C0AB0EEC00A10EE101A49450DDAF3
:10A4F00060070BD444F004046A4602210E9810F061
:10A5000032FE0422694679A007F0F8F99DED000AB1
:10A51000B0EEC00A10EE100A48451FDA9DED020A9F
:10A52000B0EEC00A10EE101A494517DA9DED010A87
:10A5300030EE6A0AB0EEC00A10EE101A49450DDA84
:10A5400020070BD444F008046A4603210E9810F04B
:10A550000AFE0422694666A007F0D0F99DED010AC3
:10A560004846B0EEC00A10EE101A49451FDA9DEDBC
:10A57000020AB0EEC00A10EE101A814217DA9DED01
:10A58000000A30EE4C0AB0EEC00A10EE101A49452F
:10A590000DDAE0060BD444F010046A4604210E984C
:10A5A00010F0E1FD0422694652A007F0A7F99DEDE5
:10A5B000010A4846B0EEC00A10EE101A81421FDAB6
:10A5C0009DED020AB0EEC00A10EE101A814217DAB1
:10A5D0009DED000A30EE6A0AB0EEC00A10EE101AC5
:10A5E00049450DDAA0060BD444F020046A46052143
:10A5F0000E9810F0B8FD042269463FA007F07EF9DE
:10A60000E043800634D13DA008F090FCDDE90E1057
:10A61000149A0AF0A7FB1099149811F0F1FE04AAFD
:10A620000021109808F098FB04AA0021139810F05C
:10A6300085FD04AA0121109808F08EFB04AA0121CF
:10A64000139810F07BFD04AA0221109808F084FBF7
:10A6500004AA0221139810F071FD0321159A109895
:10A6600008F07AFB0321159812F0A2F844F0800458
:10A670000A2008F0EBFB20067FF53AAD2806FBD553
:10A6800025A008F053FC26A0139907F0E9F803224F
:10A6900023A0159907F032F924A008F047FC20A068
:10A6A000179907F0DDF803221DA0129907F026F98B
:10A6B000CBED21CA1F480BF051FB09F069F90E9848
:10A6C0000DF0C8FE0F980DF0C5FE14980DF0C2FEF7
:10A6D00010980DF0BFFE1BB00020BDEC0C8BBDE848
:10A6E000F08F00005A2B3A005A2D3A00592B3A00AD
:10A6F000592D3A00582B3A00582D3A00616C6C20C5
:10A70000616363206461746120636F6C6C65637462
:10A7100065640D0A000000006163630D0A0000001B
:10A720006E6F686561646572000000006779720D84
:10A730000A000000280900202DE9F0470C460868AF
:10A740008EB0002562A1FDF793FE6349002801F158
:10A75000200A01F5D471894661D060490A1FA1F130
:10A760000808A1F10C03CDE908211039081F021FC8
:10A77000CDE90638CDE90401131F0C38011FCDE9DE
:10A780000232CDE900100B1F143A55A12068FDF7E5
:10A790008DFE0646092865DB4F4C0022114694EDDC
:10A7A0006C0A48460AF055FC94ED6D0A012200211E
:10A7B00048460AF04EFC94ED6E0A022200214846FB
:10A7C0000AF047FC94ED6F0A0022012148460AF086
:10A7D00040FC012294ED700A114648460AF039FC0B
:10A7E00094ED710A0222012148460AF032FC94EDF0
:10A7F000720A0022022148460AF02BFC94ED730AEB
:10A800000122022148460AF024FC022294ED740A37
:10A81000114648460AF01DFC0C2E04D01DE00846E7
:10A8200008F026F919E0A046D4F8DC01FEF72AFB6F
:10A8300006460F46D8F8D801FEF724FB04460D461D
:10A84000D8F8D401FEF71EFB8DE8F00041EC100BA8
:10A850002DA053EC102B08F069FB494633A006F0FD
:10A86000FFFF2CE09FED330A03210AA812F01DF828
:10A8700031A008F05BFB194F0024A8374FF448764D
:10A88000032239460AA811F0F8FE0A206D1C08F0D0
:10A89000DDFA641CB442F3DB00EE105AB7EE001A86
:10A8A0004146F8EEC00A0AA881EE200AF0EE080A36
:10A8B00011F0D6FF032241461CA007F01FF85046B6
:10A8C0000BF04CFA09F064F80EB00020BDE8F087F8
:10A8D0003D5245534554000008090020E40A002079
:10A8E0003D25662C25662C25662C25662C25662C98
:10A8F00025662C25662C25662C25662C25662C25A0
:10A90000662C256600000000475952206269617379
:10A91000207365743A20252E34662C20252E34664B
:10A920002C20252E34660D0A000000006D61746C29
:10A930006162000000000000626567696E204643A6
:10A9400047320D0A00000000F0B50F46086887B0D6
:10A9500028A1FDF78DFD294C04F5037604F12005AF
:10A9600004F5F07470B104A903A8CDE9000102ABAD
:10A9700005AA23A13868FDF799FD042818D0012005
:10A9800007B0F0BD204608F073F8214620A006F07D
:10A9900067FF9FED210A0321304611F086FF17481B
:10A9A0009FED1E0A002180ED2A0AC0F8A4101AE0CB
:10A9B0000599032908DA02AA204610F0D4FB2146A3
:10A9C00013A006F04DFF0EE00DD14FF0030202A9D7
:10A9D000304611F06DFE12A008F0A8FA032202A979
:10A9E00013A006F08BFF28460BF0B8F908F0D0FF53
:10A9F0000020C5E73D52455345540000080900209A
:10AA00003D25642C25662C25662C2566000000005B
:10AA10006D61746C61620000000000000000C642BD
:10AA2000626961732073657420746F3A0D0A0000C7
:10AA30006E6F68656164657200000000094B022159
:10AA4000196009490A68002AFCD0064A121D1060E4
:10AA500008680028FCD00020186008680028FCD096
:10AA60000020704704E5014000E401404FF48050AD
:10AA7000704770472DE9F0430023DFF85080DFF87E
:10AA800050901EE0C41804F00305AC43ED004FF0F5
:10AA9000FF0CCE5C0CFA05FC2768AE4027EA0C07D9
:10AAA0003E4401254F46C9F80050D8F80050002D0B
:10AAB000FBD02660D8F80040002CFBD000243C607E
:10AAC0005B1C9342DED30020BDE8F08300E401402C
:10AAD00004E501402DE9F0410EF002F900240D4D8E
:10AAE0000D4F264605EB8400D0F80011012909D14D
:10AAF000C0F80061385D08F081F918B1416809B10A
:10AB000000208847641C082CECDBBDE8F0410EF007
:10AB1000FFB8000000600040D400002070B50C4673
:10AB200005460A2A2CD2DFE802F00511072B132B69
:10AB30002B2B131DFF2200E00122284601F0D4FD3B
:10AB400000222146284600F077F819E00022F4E7B9
:10AB5000042A05D00022284600F01CF80122F0E764
:10AB60000122F8E70122284600F066F8012221467A
:10AB7000284600F00FF801222146284600F04AF846
:10AB8000284670BD02480068C84000F001007047C8
:10AB900010050050012088400AB1034901E0024934
:10ABA000091D0860704700000805005030B5184ABC
:10ABB00001244023082824D2DFE800F0040B0D1202
:10ABC0001416181F11B1C2F804431AE0C2F8084362
:10ABD00017E0022000E0042089B1C2F8040310E06D
:10ABE0000820F9E71020F7E72020F5E711B1C2F8B7
:10ABF000043306E0C2F8083303E08020ECE7C2F833
:10AC000008034FF0E020C0F80031002030BD000004
:10AC100000600040880000F1A040D0F8001721F447
:10AC2000E061C0F80017002A05D0D0F8001741F401
:10AC3000C061C0F800177047880000F1A040D0F84C
:10AC4000003723F00203C0F8003701208840012AB2
:10AC500009D007490860091D0860081D016821F036
:10AC60000101016070470249091F08607047000038
:10AC70001C050050880000F1A040D0F8001721F416
:10AC80004031C0F80017012A08D0022A05D1D0F8B7
:10AC9000001741F44031C0F800177047D0F8001792
:10ACA00041F40031F7E7000030B585B0086804AB27
:10ACB0006A4627A1FDF7FAFB022837D126A168468C
:10ACC000FDF7D6FB254C04F1200558B124A16846B8
:10ACD000FDF7CEFB38B323A16846FDF7C9FB00287A
:10ACE00026D023E00499481E102804D310211EA06A
:10ACF00008F01CF91AE023A008F018F954F8D00F56
:10AD000004994FF6FF7220F47F4002EA01210843C4
:10AD1000206028460BF022F80AF040FD002805DBF1
:10AD2000002005B030BD1FA008F000F90120F8E7B1
:10AD300023A0049908F0FAF854F8D00F049920F0F1
:10AD40007F4040EA0160206028460BF007F8E7E703
:10AD50003D2533732C256400434E54000809002020
:10AD600046525100524F4C00434E54206F75742090
:10AD70006F662072616E67652028312D2564290D6C
:10AD80000A0000006D617820747261636B61626C0F
:10AD900065206E6F6465732073657420746F3A2547
:10ADA000640D0A004572722E205573652041542BA4
:10ADB0004F445220696E73746561642E0D0A000061
:10ADC000726620726F6C652073657420746F3A250B
:10ADD000640D0A0070B50C460868FDF742FB0F4D84
:10ADE000A0B120680A220021401CFDF779FE04284A
:10ADF00011D855F8D01FC0B221F0FF010143074818
:10AE0000296020300AF0AAFF002070BD95F8D0100C
:10AE100003A008F08BF8012070BD00000809002095
:10AE200025640D0A0000000070B50C460868FDF7A7
:10AE300018FB0F4DA0B120680A220021401CFDF72D
:10AE40004FFEFF2811D855F8D01FC0B221F0FF01E6
:10AE500001430748296020300AF080FF002070BDC0
:10AE600095F8D01003A008F061F8012070BD000033
:10AE70000809002025640D0A0000000008B1002028
:10AE8000704701480068704760040020024800686D
:10AE9000C00700D0012070470C0400400148006842
:10AEA00070470000000400404FF080510A6E0260BD
:10AEB000496E41607047000008B5054B6946187837
:10AEC00001F026FF0028F9D19DF8000008BD000020
:10AED0000402002070B50C460868FDF7C2FA0B4D5D
:10AEE00078B120680A220021401CFDF7F9FD296B8A
:10AEF000814204D0286305F120000AF02FFF0020D2
:10AF000070BD03A0296B08F011F8F8E708090020CC
:10AF100025640D0A00000000FEB508686B4601AA12
:10AF200070A1FDF7C3FA02287DD1012470A101A808
:10AF3000FDF79EFA6F4D704ED0B99DED000AB5EE4B
:10AF4000C00AF1EE10FA6ED310EE100AB0426ADCBD
:10AF500010EE100AFDF796FF41EC100B67A053ECC2
:10AF6000102B07F0E3FF9DED000A002485ED210A78
:10AF700067A101A8FDF77CFA00BB9DED000AB5EEC4
:10AF8000C00AF1EE10FADED310EE100A61498842D1
:10AF9000DDDCBDEEC00AD5F8800010EE101A20F0FE
:10AFA0000F0001F00F010843C5F880005A4900F076
:10AFB0000F00095C59A007F0B9FF00245BA101A8AC
:10AFC000FDF756FA10BB9DED000AB5EEC00AF1EE92
:10AFD00010FA6BD310EE100AB0F1814F66DCBDEEB3
:10AFE000C00AD5F8800010EE101A20F0F000090712
:10AFF00040EA11601E21C5F8800001EAD0004649F0
:10B00000091D095A4AA007F091FF00244CA101A88C
:10B01000FDF72EFAE0B99DED000AB5EEC00AF1EE9B
:10B0200010FA43D300E041E010EE100AB0423DDCDC
:10B0300010EE100AFDF726FF41EC100B41A053EC77
:10B04000102B07F073FF9DED000A002485ED230A05
:10B0500041A101A8FDF70CFAB0B941490098414A55
:10B060000144914222D2FDF70DFF41EC100B3EA0AE
:10B0700053EC102B07F05AFF9DED000A1D4810EE0F
:10B08000101A0024C0F890103CA101A8FDF7F0F9B7
:10B0900008B104B323E09DED000AB5EEC00AF1EE5D
:10B0A00010FA03D310EE100AB04201DD0120FEBDFC
:10B0B00010EE100AFDF7E6FE41EC100B31A053EC48
:10B0C000102B07F033FF9DED000A0A4810EE101A0E
:10B0D0000024C0F89410074820300AF03FFE2046B4
:10B0E000FEBD00003D25375B5E2C5D2C2566000013
:10B0F00042495300080900200000A04067797220EF
:10B1000062616973207468723A25660D0A00000056
:10B1100041524700000040404C0300204143435F40
:10B1200052473A2564470D0A000000004752470085
:10B130004759525F52473A25646470730D0A000004
:10B140004C4D4600677972206C6D66207468723AC7
:10B1500025660D0A000000005A5354440000000008
:10B16000F6285CC4F728DC037A6172752073746476
:10B17000207468723A25660D0A0000005A444D4159
:10B18000580000007A6172752064656C7461206DEE
:10B1900061783A25660D0A002DE9F04F0C462DED39
:10B1A000028B99B00868F6A1FDF762F9F54E28B157
:10B1B000F5A12068FDF75CF9002838D10AF0FCFE03
:10B1C00005F038FB60B9F148B26EF1A150F82230B9
:10B1D000F1A007F0ABFEF4A1F4A0326B07F0A6FEDD
:10B1E000D6E90A23F4A1F6A007F0A0FEB06CF7A1FF
:10B1F000020CF8A007F09AFE96F8D020F8A1FAA069
:10B2000007F094FE05F016FB88B1B6F8D000C0F345
:10B21000072505B901252A46F6A1F3A007F086FE09
:10B22000012D0AD06A1EF6A1F8A007F07FFEFAA150
:10B230002068FDF71DF928B127E0F1A1F8A007F07B
:10B2400075FEF4E7B6F8F222F8A1E2A007F06EFE70
:10B25000F8A1FBA0D6F8E82207F068FE96F8800077
:10B26000CA4900F00F0010390A5CF9A1FAA007F0F2
:10B270005DFED6F880001E2101EAD000C3490C39DA
:10B280000A5AF8A1F9A007F051FEFCA12068FDF7C9
:10B29000EFF850B907F028FF054607F027FFB5FB88
:10B2A000F0F2F8A1F9A007F041FEFBA12068FDF73C
:10B2B000DFF8DFF8ECB300282BD1ABF5A271F9A0D1
:10B2C00006F0CEFA0322ABF58C71F8A006F016FB5F
:10B2D00003220BF10C01F8A006F010FBABF5867110
:10B2E000F8A006F0BDFA0322ABF1E001EFA006F0F2
:10B2F00005FB03225946F5A006F000FBABF1D40193
:10B30000F5A006F0ADFA0322ABF1A801E7A006F024
:10B31000F5FAF3A12068FDF7ABF89A49002801F18E
:10B32000900A01F1940954D19FA1AFA0326B07F0AC
:10B33000FDFD97A1ACA0B26E07F0F8FD96F8D02005
:10B34000A7A1A9A007F0F2FDE7A1A7A0726C07F0E2
:10B35000EDFDD6F88400FDF795FD41EC100BE4A15E
:10B3600053EC102BE4A007F0E1FDD6F88C00FDF7BC
:10B3700089FD41EC100BE4A153EC102BDEA007F08B
:10B38000D5FD50460AF0E4FC10EE100AFDF77AFDF8
:10B3900041EC100BDFA153EC102BD7A007F0C6FD3A
:10B3A00048460AF0D5FC10EE100AFDF76BFD41ECA3
:10B3B000100BDBA153EC102BCFA007F0B7FDB6F8B4
:10B3C000F422D9A188A007F0B1FDDA49DAA006F08D
:10B3D00047FADBA12068FDF74BF8D0B996F8D020EA
:10B3E0007FA181A007F0A2FDB6F8D000D5A1C0F3DF
:10B3F00007227DA007F09AFDB06CD6A1020C7AA0BE
:10B4000007F094FDD6F8D000D4A1020E76A007F084
:10B410008DFDD4A12068FDF72BF850B909F053FC3D
:10B4200009F000FC07F062FE0246D0A169A007F017
:10B430007DFDD0A12068FDF71BF830B1CFA12068B9
:10B44000FDF716F8002875D0DEE2F56E022D00D962
:10B4500000252F46022D04D196F86400C00700D1C4
:10B460000127684608F09AFADFF82081044608F1BF
:10B4700034082A4658F82530C2A1C5A007F056FD69
:10B4800058F827303A46C6A1C1A007F04FFDC8A121
:10B490006BA0726E07F04AFD9FEDC88A14B19DED56
:10B4A000000A01E0B0EE480A10EE100AFDF7EAFCCF
:10B4B00041EC100BC2A153EC102BC4A007F036FDD9
:10B4C00014B19DED050A01E0B0EE480A10EE100A35
:10B4D000FDF7D8FC41EC100BC0A153EC102BBBA026
:10B4E00007F024FD14B19DED010A01E0B0EE480A19
:10B4F00010EE100AFDF7C6FC41EC100BB9A153EC9D
:10B50000102B7DA007F012FD14B19DED020A01E0A1
:10B51000B0EE480A10EE100AFDF7B4FC41EC100B37
:10B52000B2A153EC102B74A007F000FD1CB19DEDEF
:10B53000030A02E039E2B0EE480A10EE100AFDF705
:10B54000A1FC41EC100BABA153EC102B6AA007F04F
:10B55000EDFC14B19DED040A01E0B0EE480A10EED6
:10B56000100AFDF78FFC41EC100BA4A153EC102B3B
:10B5700061A007F0DBFC14B19DED060A44E141E156
:10B5800000000000080900203D4C00006C03002072
:10B590004D4F44453A000000252D3136732564286F
:10B5A0002573290D0A00000049443A00252D313643
:10B5B00073307825580D0A00555549443A0000006B
:10B5C000252D313673255825580D0A004F44523A1F
:10B5D00000000000252D3136732564487A0D0A00DD
:10B5E000475749443A000000252D31367325640D34
:10B5F0000A0000004D4158204E4F4445533A000088
:10B60000534C4156452049443A000000252D31361F
:10B6100073307E25640D0A003D53454E534F520052
:10B62000252D313673300D0A000000006779722035
:10B630006672710073656E736F72207374730000AD
:10B64000252D3136733078253038580D0A0000002A
:10B650004143435F52473A00252D313673256447F5
:10B660000D0A00004759525F52473A00252D3136E6
:10B670007325646470730D0A000000003D4350554B
:10B680000000000074696D6500000000252D313652
:10B6900073256420730D0A003D43414C00000000F7
:10B6A000BC0B00204143430D0A0000006E6F68652B
:10B6B00061646572000000005243204143430D0A5B
:10B6C000000000004759520D0A0000005243204775
:10B6D00059520D0A000000004D41470D0A000000BC
:10B6E0003D55535200000000424155443A000000CD
:10B6F00047425F5448523A00252D31367325302E8B
:10B7000034660D0A000000004C4D465F5448523A22
:10B71000000000005A5354445F5448523A0000005D
:10B720005A444D41583A0000494D555F434F4F52DE
:10B73000443A00004C0A0020555246520D0A0000BF
:10B740003D5246004D41585F4E4F44455F53495A64
:10B75000453A00004652513A00000000524F4C4515
:10B760003A0000003D535953000000006F732074ED
:10B7700069636B003D445249465400003D485349BB
:10B780000000000044524946545F4D4F44453A0082
:10B79000252D313673256420282573290D0A0000D4
:10B7A00044524946545F4150504C593A0000000001
:10B7B0004655535F43544C3A00000000000000001F
:10B7C00044524946545F573A00000000252D313657
:10B7D0007325302E36660D0A0000000057425F4583
:10B7E00046463A00575F4143433A0000575F53547F
:10B7F000443A0000575F4759523A0000575F5241A0
:10B80000573A0000B0EE480A10EE100AFDF73AFB76
:10B8100041EC100B7FA153EC102BAFF2241007F07A
:10B8200085FB0CB19DED078A18EE100AFDF72AFB87
:10B8300041EC100B7AA153EC102BAFF2441007F03F
:10B8400075FBD6F8CC02FDF71DFB41EC100B77A180
:10B8500053EC102BAFF2601007F068FBD6F8D4025F
:10B86000FDF710FB41EC100B73A153EC102BAFF262
:10B87000781007F05BFBD6F8D802FDF703FB41EC2C
:10B88000100B70A153EC102BAFF2941007F04EFB8D
:10B890000CB1129801E0D6F88400FDF7F3FA41EC00
:10B8A000100B6BA153EC102BAFF2B41007F03EFB62
:10B8B00014B19DED130A02E050460AF049FA10EE69
:10B8C000100AFDF7DFFA41EC100B64A153EC102BCA
:10B8D000AFF2DC1007F02AFB14B19DED140A02E070
:10B8E00048460AF035FA10EE100AFDF7CBFA41ECA3
:10B8F000100B5DA153EC102BAFF2042007F016FBE8
:10B900005CA1AFF2C420D6F8EC2207F00FFBB6F82A
:10B91000F6225BA15DA007F009FB002C2ED05EA1F2
:10B920005AA0169A07F002FB5FA158A0159A07F0DB
:10B93000FDFA60A155A0179A07F0F8FA60A153A08C
:10B94000189A07F0F3FA0898FDF79CFA41EC100BEF
:10B950005EA153EC102BAFF2602007F0E7FA032250
:10B960005DA009A905F0CAFF03225FA00CA905F09C
:10B97000C5FF03225FA00FA905F0C0FF03226149A4
:10B9800061A005F0BBFF0322594662A005F0B6FF97
:10B990005C4903227C3963A005F0B0FF59490322BA
:10B9A000343963A005F0AAFF2EE036F8A40F63A196
:10B9B000C0F30722AFF2D03007F0B8FA7068FDF795
:10B9C00061FA41EC100B5FA153EC102B5FA007F064
:10B9D000ADFA327860A163A007F0A8FAB068FDF76D
:10B9E00051FA41EC100B62A153EC102B57A007F059
:10B9F0009DFAF068FDF746FA41EC100B5EA153EC9E
:10BA0000102B52A007F092FA19B00020BDEC028B67
:10BA1000BDE8F08F4143435F4E4F524D3A00000066
:10BA20004156475F4759523A000000005354445F63
:10BA30004143433A000000004759525F54454D507E
:10BA40003A00000054454D505F424153453A0000D2
:10BA5000424941535F5448523A0000005354445FF6
:10BA60005448523A0000000044454C54415F4D4157
:10BA7000583A0000544553545F43544C3A00000078
:10BA80005359535F52435F434E543A00252D31368C
:10BA900073256C750D0A00005A4152555F52435F81
:10BAA000434E543A000000005A4152555F53554DE1
:10BAB0003A0000005A4152555F5550443A00000088
:10BAC0005A4152555F4C4153543A00005A41525525
:10BAD0005F5354443A0000005A4152555F53544456
:10BAE0005F58595A0D0A00005A4152555F42494168
:10BAF000530D0A005A415255205243204759520DC6
:10BB00000A000000E40B00205359532042494153DE
:10BB10000D0A0000535953205243204759520D0A31
:10BB20000000000043414C204759520D0A0000001C
:10BB300043414C20475952320D0A000076616C692E
:10BB4000643A00006669746572723A00252D3136D8
:10BB50007325660D0A00000062696E5F737461747C
:10BB600075733A00252D313673256425250D0A009D
:10BB7000666C75783A000000696E636C696E61747A
:10BB8000696F6E3A0000000010B508680A220021B3
:10BB9000401CFCF7A5FF0446014605A007F0C6F9C6
:10BBA0000648846620300AF0D9F8002010BD000055
:10BBB0004D4F44453D25640D0A0000000809002052
:10BBC00010B500F001F810BD70474907090E0028B4
:10BBD00006DA00F00F0000F1E02080F8141D704735
:10BBE00000F1E02080F80014704700002DE9F047D4
:10BBF000086800260A223146401CFCF771FF044603
:10BC0000401EB0F5C87F37D2274FB86CB4EB104F49
:10BC100004D080B240EA04400126B8641FFA84FAD6
:10BC200007F010F9DFF88490D9F8088007F00CF9D4
:10BC30000025B8F1000F02D05046C047054665B157
:10BC4000D7F8D000C0F30721A94206D020F47F40E6
:10BC500040EA0520C7F8D00000E01EB112482030AD
:10BC60000AF07CF85DB12A46214611A007F05EF982
:10BC700009F094FD002814DA0120BDE8F087A6B28F
:10BC800007F0E0F81148D9F80040057807F0DCF833
:10BC900014B13046A04704E01DB10DA007F046F9ED
:10BCA000EAE70020E9E70000080900205811002019
:10BCB0004F44523D256420487A2C206D6178206ED7
:10BCC0006F6465733D25640D0A000000B803002011
:10BCD00052462072756E74696D6520686F6F6B20B7
:10BCE0006D697373696E673A206F64725F63686130
:10BCF0006E6765640D0A000010B50CF0F1FF4FF09F
:10BD00008040D0F8081131B10021C0F80811044872
:10BD10000168491C0160BDE810400CF0F9BF00004B
:10BD20000000002070B5044600202B4B9FED2B0A2D
:10BD30000BE06288616800FB020201EB82010A6885
:10BD40009A4201DA81ED000A401C21888142F0DC30
:10BD500000253DE06188606805FB015100EB810032
:10BD600090ED000A10EE100AB0F1804F2FDDB0EE1A
:10BD7000001AC1EE000A10EE900AFDF783F841ECBC
:10BD8000100B02F01DFE51EC100BFDF7A7F800EEB2
:10BD9000100A002018E06288616805FB020201EBCE
:10BDA0008201D1ED000A60EE800AC1ED000A6288CE
:10BDB000616800FB025201EB8201401CD1ED000AD8
:10BDC00060EE800AC1ED000A21888142E3DC6D1C2F
:10BDD0002088A842BEDC70BD6F12833A6F12833A8E
:10BDE00010B5044A04460146107800F0E1FF2046F1
:10BDF00010BD00000402002018210148FCF710BB10
:10BE0000780C0020044B01228240186809B11043CD
:10BE100000E09043186070473015004000280CD0B7
:10BE200006490A6802604A6842608A688260CA6895
:10BE3000C2600A690261496941617047780C00205B
:10BE400006490868C00502D540F6381001E04FF4F5
:10BE50001660096801F03F0108447047081500406A
:10BE600001480068704700000415004070B50CF0F0
:10BE700037FF174CD4F83001164D002650B1C4F8E6
:10BE80003061686830B1FFF7EBFF014600226B6854
:10BE900010469847D4F8340138B1C4F834616B685F
:10BEA0001BB10022114601209847D4F80C0158B16B
:10BEB000C4F80C61084800680A2805D16B681BB1FA
:10BEC0000022114602209847BDE870400CF020BFC8
:10BED000001000404804002050150040134900B5F0
:10BEE000114808600820091F0860802000F062F8EF
:10BEF0000E4902201C310860091D0D480860091D0B
:10BF00004FF6FF7008600B490020C1F800020A4894
:10BF1000016841F001010160044904200C39086006
:10BF200006490120086000BDFF000401181500400B
:10BF3000211001000010004050160040FC1F00407E
:10BF400001490860704700000815004030B5012421
:10BF50004FF0E0220223C2F80031154A072809D227
:10BF6000DFE800F00E0C04171A1F1500082015E07A
:10BF7000C2F8040330BDC2F8080330BD04200DE050
:10BF800011B1C2F8043330BDC2F8083330BD80208F
:10BF900004E04FF4805001E04FF400500029EAD053
:10BFA000E6E711B1C2F8044330BDC2F8084330BD22
:10BFB0000010004004490A6822F0FF020A600A6883
:10BFC000C0B202430A60704718150040064930B1FC
:10BFD000012804D0022804D0032801D104200860DD
:10BFE00070470320FBE7000010150040014908607E
:10BFF0007047000020150040254B10B51A1D082879
:10C0000024D2DFE800F0040B131B242B333B186809
:10C0100020F0FF0018601868084316E0186820F444
:10C020007F401860186840EA01200EE0186820F48C
:10C030007F001860186840EA014006E0186820F0A8
:10C040007F401860186840EA0160186010BD1068F1
:10C0500020F0FF0010601068084316E0106820F41C
:10C060007F401060106840EA01200EE0106820F464
:10C070007F001060106840EA014006E0106820F080
:10C080007F401060106840EA0160106010BD000041
:10C090002415004003490860034901208860486175
:10C0A000704700000415004000100040054A106071
:10C0B00004482838016004480021C0F80C1101210F
:10C0C000816070472C15004000100040114B5868EB
:10C0D000401C586010480168022919D001680129E4
:10C0E00016D00068032813D00C490020C1F80001C5
:10C0F0000120486042F2107006E0401E04D2D86869
:10C10000401CD8600AF030BED1F80021002AF4D0DB
:10C1100070470000780C00205015004000100040CF
:10C12000F0B41B4D2868401C28601A4A10680A2881
:10C130002BD01068092828D010680B2825D010684B
:10C140000126154B42F21071022805D01068012813
:10C1500002D01068032807D1DE60084601E0401EC7
:10C1600009D31468022CFAD10020C3F800011E6024
:10C1700007E0491E05D2A868401CA860F0BC0AF080
:10C18000F3BDD3F800010028F3D0F0BC70470000E5
:10C19000780C0020501500400010004010B503A09E
:10C1A00006F0C4FE06F09CFF002010BD4F4B0D0AA8
:10C1B0000000000070B504460068A26801219047A5
:10C1C0002069A8B10EF080FA05460CE00EF07CFA6A
:10C1D000411BE069814202D96FF0010070BD401C33
:10C1E00040080EF07FF82169206888470028EDD0CC
:10C1F000204607F0E0F9002070BD00001FB50F4891
:10C200000DC88DE80D00086803AA0DA1FCF74EF9D2
:10C210000446012808D19DED030ADFED0A0A002437
:10C2200020EE200A8DED030A07499DED030A6846BA
:10C2300004F0B4FD04B0204610BD000038CD01006C
:10C240003D25660035FA8E3C400B00202DE9F04379
:10C25000086885B03D21FCF7FAF8050050A0DFF82A
:10C2600050910FC88DE80F004FF001086F4611D0B4
:10C2700068780D280ED00A280CD058B10026344614
:10C2800004AA4CA1681CFCF711F9C0B2012816D011
:10C2900049A034E04DA006F049FE002445464E4634
:10C2A00005FA04F1B06C084205D0395DFF2902D0CF
:10C2B0004AA006F03BFE641C102CF1DB6EE000236C
:10C2C0009DF810201846395CFF2905D0914203D112
:10C2D00008FA00F10C4303E0401C1028F3DB8BB19B
:10C2E0002C21681C761CFCF7B2F8050001D0102E3A
:10C2F000C6DB5EB1E0050DD5A0050BD53AA006F072
:10C3000015FE03E0D1B243A006F010FE012005B0F7
:10C31000BDE8F0834DA006F009FE0025464606FA6A
:10C3200005F0204205D0795DFF2902D02BA006F050
:10C33000FDFD6D1C102DF2DBD9F84830D9F8D41072
:10C340009AB201F001004F460546A24201D00122F7
:10C3500000E00022E60501D5012502E0A60504D58E
:10C360000025A84201D0012600E00026324315D066
:10C37000180C00042043B86426B121F001002843C2
:10C38000C9F8D4000A48203009F0E8FC36B10DB1F4
:10C39000082100E0092132A006F0C8FD0020B6E720
:10C3A00091FFFFFFFFFFFFFF626393FFFFFFFFFFB0
:10C3B00008090020255800004552523A2062616465
:10C3C00020746F6B656E0D0A000000007061636B76
:10C3D0006574206974656D733A0D0A005B307825C9
:10C3E0003032585D0D0A00004552523A20307836FE
:10C3F0003220616E64203078363320617265206DA2
:10C40000757475616C6C79206578636C7573697689
:10C41000650D0A004552523A20756E6B6E6F776E4D
:10C42000206974656D203078253032582028766177
:10C430006C69643A203078393120307836322030D7
:10C440007836332030783933290D0A006E6577202D
:10C450007061636B6574206974656D733A0D0A00D1
:10C46000524620666F726D6174206175746F3A3048
:10C47000782530325820287265626F6F7420746F8F
:10C48000206170706C79290D0A00000070B50C46AF
:10C490000868FBF7E6FF164D58B120680A22002114
:10C4A000401CFCF71DFB040013D0012C0DD0012013
:10C4B00070BD95F8600010F0010101D00DA200E000
:10C4C0000DA20EA006F032FD0FE0286E40F0010034
:10C4D00002E0286E20F0010028660548203009F0AF
:10C4E0003DFC214609A006F021FD002070BD0000A2
:10C4F000080900204F4E00004F464600534C45456A
:10C50000503D256420282573290D0A00534C4545CC
:10C51000503D25640D0A0000054B00B553F820304E
:10C520000722C3F8002500F077F8002000BD0000C6
:10C5300008CB010030B5154C002354F82050C5F845
:10C54000341554F82010C1F8382554F82020C2F8CA
:10C55000443554F82020C2F8483554F82020C2F859
:10C56000103154F8201001220A61150454F82000FB
:10C5700005E05B1CAB4202D94261012030BDD0F81E
:10C5800010110029F5D0002030BD000008CB0100BB
:10C5900070B5204C002654F8205031B1C5F8441530
:10C5A00054F82010C1F8483501E0C5F8486554F842
:10C5B000201032B1C1F8342554F82010C1F83835B4
:10C5C00001E0C1F8386554F82010C1F8206154F832
:10C5D0002010C1F8106154F8201001220A610021D6
:10C5E000130454F8200002E0491C994208D8D0F8FE
:10C5F0002041002CF8D0002105E0491C994202D9C5
:10C600004261012070BDD0F81041002CF5D000200F
:10C6100070BD000008CB010010B5174B154A8C1AED
:10C6200053F8200091421FD00ADCA1F64801B1F571
:10C63000F03113D001F5E561B1F5B82F0BD110E061
:10C640000C494942611812D00C4AD14203D1C905A4
:10C65000C0F8241510BD4FF08051F9E74FF000717C
:10C66000F6E74FF00061F3E74FF00051F0E74FF0CD
:10C670008041EDE780841E0008CB010000F7C2FF77
:10C6800030B5154C002354F82050C5F8441554F823
:10C690002010C1F8482554F82020C2F8343554F849
:10C6A0002020C2F8383554F82020C2F8203154F840
:10C6B000201001220A61150454F8200005E05B1CDB
:10C6C000AB4202D94261012030BDD0F820110029CF
:10C6D000F5D0002030BD000008CB0100014A5160B8
:10C6E00010607047F4010020880000F1A040D0F8ED
:10C6F000001721F00C01C0F8001742B1012A05D142
:10C70000D0F8001741F00C01C0F800177047D0F8BE
:10C71000001741F00401F7E710B50CF0E1FA0DF055
:10C72000D9FFBDE810400CF0F3BA000000B54FF09F
:10C73000E020016941F0040101616FF07F41416136
:10C740000020FEF79BFB064A0449B0FBF2F04FF4D1
:10C750007A7208605043486000BD0000E00100208C
:10C7600040420F0002490148086070470090D00322
:10C770006004002070B59F489E4A00250078121D75
:10C78000111D4FF0805406280BD113781B0708D1D8
:10C790000B78C3F30313032B06D0042B04D0052B13
:10C7A00002D0062807D00EE0B4F82433924EC3F32B
:10C7B0000423336002E013781B0704D10B78C3F322
:10C7C0000313032B02D0062804D00FE08C4E8B4BB2
:10C7D00073670EE013781B0708D10B78C3F30313BC
:10C7E000032B06D0042B04D0052B02D0062807D03B
:10C7F0000EE0D4F84432834EC3F34233336002E098
:10C8000013781B0704D10B78C3F30313032B02D057
:10C81000062806D011E07C4B1E6826F080761E604C
:10C820000EE013781B0708D10B78C3F30313032B17
:10C8300006D0042B04D0052B02D006280AD011E024
:10C840004FF08043C3F80C51C3F810516D4B1B1FC0
:10C850001D6002E013781B0704D10B78C3F30313A8
:10C86000032B02D0062805D00CE0664E0323643665
:10C8700033600AE013781B0704D10B78C3F303136A
:10C88000032B02D006280FD016E0604E052333603C
:10C890005E4E0123783633605C4B08331D605B4D80
:10C8A0003F232D1D2B6002E013781B0704D10B786A
:10C8B000C3F30313052B02D0062857D062E0544B74
:10C8C0001B68544D2B60524B1B1D1B682D1D2B608C
:10C8D0004F4B08331B682D1D2B604D4B0C331B68D1
:10C8E0002D1D2B604A4B10331B682D1D2B60484BB0
:10C8F00014331B682D1D2B60454B18331B68454DA9
:10C9000020352B60424B1C331B682D1D2B60404B88
:10C9100020331B682D1D2B603D4B24331B682D1DC0
:10C920002B603B4B28331B682D1D2B60384B2C3361
:10C930001B682D1D2B60364B30331B68354D403541
:10C940002B60334B34331B682D1D2B60304B383339
:10C950001B682D1D2B602E4B3C331B682D1D2B603F
:10C960002B4B40331B682D1D2B6002E013781B07F7
:10C9700008D10B78C3F30313032B06D0042B04D088
:10C98000052B02D0062807D019E0D4F85802224A15
:10C9900000F04F00106002E0107800070FD1087817
:10C9A000C0F30310032803D0042801D0052806D1C2
:10C9B0001A480168C90702D06FF001010160D4F87C
:10C9C0003001062808D1D4F83401062804D11448CF
:10C9D000016841F4806101600B487438016841F4DA
:10C9E00070010160BFF34F8FBFF36F8F0E490D4889
:10C9F000086070BDE00F00F0403501400DF0ADBAA9
:10CA000000C007403C050040FCED00E0105600402F
:10CA10000404001020C50040E40E00400004004063
:10CA20003C1700400090D00360040020BFF34F8FFC
:10CA300004480168044A01F4E06111430160BFF356
:10CA40004F8FFEE70CED00E00400FA0510B50CF086
:10CA500047F907490020C1F84001064803681BB1A7
:10CA60000021426808469847BDE810400CF050B9D4
:10CA700000800040D81F002010B50CF031F90A49A1
:10CA80000020C1F8400109480168491C01600848BC
:10CA9000D0F8903023B10021D0F89420032098479B
:10CAA000BDE810400CF034B900A001405004002053
:10CAB000D81F0020024A012152F82000C1607047AF
:10CAC00018CB0100F0B5114D0446032755F824009A
:10CAD0000E46C0F81075204600F04AF855F82410AC
:10CAE0000020C1F8040555F82400C0F8087555F871
:10CAF0002400D0F80022012303FA06F10A43C0F80B
:10CB0000002255F824000360F0BD000018CB01009E
:10CB100010B50124103104FA01F30B4951F820102B
:10CB200012B1C1F8043301E0C1F808330649091F06
:10CB3000085600F01F018C404009800000F1E02001
:10CB4000C0F8004110BD000018CB010010B5074C23
:10CB50000123083154F820008B40D0F800120AB1AC
:10CB6000194300E09943C0F8001210BD18CB010032
:10CB700030B5084C02234FF4A86523605300064AE1
:10CB800005EB810152F82040635052F8200001214A
:10CB9000C16030BD0002002018CB0100024A012113
:10CBA00052F820000160704718CB0100024A0121B1
:10CBB00052F820004160704718CB010070B51F4E3D
:10CBC0000C4696F8D40000F00105086820B1007802
:10CBD00010B13D2818D105E00DB1082100E0092170
:10CBE00017A024E003F026FE18B117A006F09EF966
:10CBF0000AE020680A220021401CFBF771FF04466E
:10CC0000082803D0092C01D0012070BD082C12D0B7
:10CC10000020854209D056F8D41F21F001010143BC
:10CC200006483160203009F099F8214612A006F03C
:10CC30007DF9002070BD0120EBE70000080900200D
:10CC400025640D0A000000004552523A20676174C5
:10CC50006577617920524620666F726D6174206637
:10CC60006F6C6C6F77732053455450544C3D363283
:10CC70002F36330D0A0000007478666D743D25640C
:10CC800020287265626F6F7420746F206170706C01
:10CC900079290D0A0000000070B51A4CD4F8100173
:10CCA000194EE8B1D4F80403C00619D5308B8005BD
:10CCB00012D5164D706D29780144002000F028F837
:10CCC0002878F16D401CC0B2B0FBF1F201FB1200FC
:10CCD000287040F2031100E001210B480BF0E8FD41
:10CCE000D4F8200100280BD0D4F80403C00507D5E0
:10CCF0000020C4F82001B06DBDE870400CF0C4BD48
:10CD000070BD000000200040040C0020DC01002069
:10CD1000074A52F82000D0F810213AB10022C0F89A
:10CD20001021044840780870104670470120704771
:10CD30002CCB01000402002070B5184D04460820D9
:10CD400055F82420C2F80005204600F053F855F8A5
:10CD50002400D0F8001241F02001C0F8001255F86C
:10CD600024100120C1F8380555F824200C49C2F8D8
:10CD7000341555F82410086055F824108860094DC2
:10CD8000287840B106480849401E04700748FFF75C
:10CD9000A5FC00202870002070BD00002CCB0100F5
:10CDA00005020020FC010020B9AE0000E1BD00003A
:10CDB00013B50F49002251F82030C3F81C2151F857
:10CDC0002030C3F8202151F820300122C3F8482533
:10CDD00051F8204001ABC4F8443551F820309A6036
:10CDE00051F82000D0F81C110029FBD01CBD000018
:10CDF0002CCB010070B5094B00221C1F53F8325098
:10CE00008D4206D103EBC20554F820606D68C6F868
:10CE10002455521C0A2AF1D370BD000030CB01000A
:10CE200030B5124B01241B5603F01F05AC405B09C3
:10CE30009B0003F1E023C3F800410C4B1B1D31B1F3
:10CE4000012902D002290FD109E0102101E04FF49D
:10CE5000807153F820002AB1C0F8041304E04FF4A5
:10CE60000031F6E7C0F80813002030BD28CB0100E0
:10CE700030B5094B002453F82050C5F8204153F831
:10CE80002040C4F8482553F82020C2F8441553F830
:10CE900020000121816030BD2CCB010070B50C4613
:10CEA000086888B038A1FBF7E3FA394D05F1200690
:10CEB00005F5A275C0B13749081F021FCDE905016C
:10CEC000131FCDE903320C38011F0A1F0092CDE970
:10CED0000110131F083A30A12068FBF7E7FA092870
:10CEE00006D0012008B070BD284605F0C1FD3FE026
:10CEF000274C0022114694ED530A284608F0A9F861
:10CF000094ED540A01220021284608F0A2F894ED7D
:10CF1000550A02220021284608F09BF894ED560A93
:10CF200000220121284608F094F8012294ED570AC6
:10CF30001146284608F08DF894ED580A0222012186
:10CF4000284608F086F894ED590A00220221284666
:10CF500008F07FF894ED5A0A01220221284608F0D1
:10CF600078F8022294ED5B0A1146284608F071F821
:10CF7000294610A004F074FC304608F0EFFE06F0DD
:10CF800007FD0020AEE700003D5245534554000028
:10CF900008090020740A00203D25662C25662C25F2
:10CFA000662C25662C25662C25662C25662C256688
:10CFB0002C2566006D61746C6162000010B500B9CB
:10CFC0000120410CC0034FF47A720023FBF7D0F923
:10CFD000014300D101200549401E086001F1040110
:10CFE0004FF0010008600249086010BD04050140CF
:10CFF0000000014002490148086070473546526E02
:10D00000000601407CB50C001D461646014601D0C5
:10D01000601E00E00020CDE90010064B6A4629465C
:10D02000304602F035FC002C02D0009A002111702D
:10D030007CBD00007D01010003B40198410000980F
:10D0400050EAC12018BF04204A0D18BF40F001006B
:10D0500040F2FF72B2EB515F08BF40F002000128BE
:10D0600008BF052002B070474100080218BF042025
:10D070000A0E18BF40F001004FF07F4232EA010172
:10D0800008BF40F00200012808BF052070470000DB
:10D09000004870476404002010B510EE104A4FF0AD
:10D0A0001A402DED028B00EB4400B0F1C85F4AD866
:10D0B0004FF0FC40B0EB440F22D2B0EEC00AF7EEC6
:10D0C000000A30EEC00AF6EE000A20EE208A18EEC2
:10D0D000100A0EF04CF900EE100A14F0004F1DBFBC
:10D0E0009FED281ADFED280AB1EE400A9FED271ABE
:10D0F00008BFF0EE410AF8EE001A20EE210A05E022
:10D1000020EE008A9FED221ADFED220ADFED221ABF
:10D110009FED222A70EEC00A20EE080A08EE212AAE
:10D12000DFED1F1A48EE021A9FED1E2A08EE212A93
:10D13000DFED1D1A48EE021ABDEC028B40EE610ACB
:10D1400030EE810A10BD4FF0CC40B0EB440F82BFEF
:10D150009FED160ABDEC028B10BD4FF07F40B0EB87
:10D16000440F05D2BDEC028BBDE8104001F05CBD60
:10D17000012001F049FEBDEC028BBDE8104001F03A
:10D1800057BD00000000494022AA7D3A000000007F
:10D190000000C93F22AAFD3924FE1C3DC78AD83CA5
:10D1A0001E67383D1B93993DAFAA2A3EDB0FC93F4E
:10D1B00070B5C1482DED020B2DED0E8B82B0119D87
:10D1C00025F000449FEDBEDB9FEDBFEB84423EDBCC
:10D1D000A4F140511098A1F17F6108430FD0BC48E1
:10D1E000844202DC28D1109830B39DED100B02B0C0
:10D1F000BDEC0E8B02B0BDE8704001F0D1BC9DEDDE
:10D20000100B53EC1D2B51EC100BFBF749FD9DED62
:10D21000100B41EC180B53EC1E2B51EC100BFBF7D1
:10D220003FFD53EC182BFBF794FC41EC100B02B0C4
:10D23000BDEC0E8B02B070BD012001F0E5FD02B027
:10D24000BDEC0E8B02B0BDE8704001F0BDBCA14842
:10D250009FEDA18B844256DA9DED100BB4F1795FFE
:10D260000ADA51EC100BFFF7E7FE042808BF01F0C3
:10D27000CBFC9DED100BDAE753EC102B51EC100BAF
:10D28000FBF70EFD41EC190B95480621B0EE490A5B
:10D29000F0EE690A784401F0EDFB53EC192B51ECE8
:10D2A000100BFBF7FDFC41EC1A0B8E48B0EE490A5F
:10D2B000F0EE690A0421784401F0DCFB53EC192BF1
:10D2C00051EC100BFBF7ECFC53EC182BFBF741FC7B
:10D2D00041EC100B51EC1A0B53EC102BFBF752FDE9
:10D2E000CDE900019DED000B53EC102B9DED100BD3
:10D2F00051EC100BFBF7D4FC9DED101B53EC112BE4
:10D30000FBF727FCD2E09DED100B51EC100B05F064
:10D31000C3FB53EC182BFBF7C0FC9FED730BCDE95F
:10D32000000153EC102B9DED000B51EC100BFBF7A3
:10D33000B7FC41EC190B6E480621B0EE490AF0EE3D
:10D34000690A784401F096FB53EC192B51EC100B51
:10D35000FBF7A6FC41EC1B0B6648B0EE490AF0EE69
:10D36000690A0421784401F085FB53EC192B51EC38
:10D37000100BFBF795FC53EC182BFBF7EAFB41EC89
:10D380001C0B51EC190B0DF0BBFF41EC180B5A486C
:10D390009FED5BABA04222DC53EC1C2B51EC1B0B32
:10D3A000FBF7F0FCCDE900019DED000B51EC180BF3
:10D3B00053EC102BFBF774FC53EC182BFBF7C9FB59
:10D3C00053EC1A2BFBF76CFC53EC1D2BFBF762FCA8
:10D3D00053EC1E2BFBF761FC41EC100B5FE08DED75
:10D3E000008B002000909DED000B51EC180B53ECCE
:10D3F000102BFBF7AEFB9DED000B41EC1E0B53EC2D
:10D40000102B51EC100BFBF74BFC53EC192BFBF7DB
:10D4100044FC53EC1E2BFBF7B5FC41EC190B53EC11
:10D420001C2B51EC1B0BFBF7ADFC41EC1B0B53EC25
:10D430001A2B51EC190BFBF733FC53EC1D2BFBF7AC
:10D440002CFC41EC190B53EC1A2B51EC180BFBF78D
:10D4500027FC53EC1B2BFBF723FC53EC192BFBF79E
:10D4600019FC9DED000B41EC180B53EC1A2B51EC01
:10D47000100BFBF715FC9FED249B53EC192BFBF7CE
:10D480000CFC41EC100B51EC180B53EC102BFBF780
:10D4900001FC53EC192BFBF700FC41EC100B002DA9
:10D4A0003FF7C5AE51EC100B81F0004141EC100B81
:10D4B000BDE60000000000000000F03F000000009A
:10D4C000075C143326A6913C182D4454FB21F93FE8
:10D4D0000000F07F0000E03F000000000000F03F8F
:10D4E000E8FB0000F6FB0000000000000000E03F49
:10D4F0003AFB000048FB00003333EF3F0000000020
:10D500000000000000000040182D4454FB21E93FBA
:10D5100070B59B482DED020B2DED068B079D25F078
:10D520000044A04218DC9748844202DC0AD10698E5
:10D5300040B19DED060BBDEC068B02B0BDE870401E
:10D5400001F02EBB002DCCBF9FED8F0B9FED900BFC
:10D55000BDEC068B02B070BD8F48A04215DD8F4830
:10D56000A042D8BF4FF0FF3458DD9DED060B51ECC3
:10D57000100BFFF761FD042808BF01F045FB9DED8E
:10D58000060BBDEC068B02B070BD9DED060B51EC99
:10D59000100B05F081FACDE9060181489FED828BE1
:10D5A000A0423CDD8248A0421FDD00249FED82ABFB
:10D5B0009DED060B53EC1A2B51EC100BFBF7C9FA3F
:10D5C0009DED060B41EC190B53EC1A2B51EC100B93
:10D5D000FBF766FB53EC182BFBF75CFB53EC192BAA
:10D5E000FBF7D0FBCDE9060149E09DED060B0124D8
:10D5F00053EC182B51EC100BFBF7ABFA9DED060B1F
:10D6000041EC190B53EC182B51EC100BFBF742FBC0
:10D6100053EC192BFBF7B6FBCDE906012FE0684868
:10D62000A0421FDD02249FED689B9DED060B53EC8D
:10D63000192B51EC100BFBF733FB53EC182BFBF7BA
:10D6400088FA9DED060B41EC180B53EC192B51ECAD
:10D65000100BFBF71FFB53EC182BFBF793FBCDE9EB
:10D6600006010CE09DED060B032453EC102B9FEDFF
:10D67000580B51EC100BFBF785FBCDE906019DED36
:10D68000060B53EC102B51EC100BFBF709FB41EC94
:10D69000180B53EC182BFBF703FB41EC190B4E480E
:10D6A0000621B0EE490AF0EE690A784401F0E2F989
:10D6B00053EC182B51EC100BFBF7F2FA41EC180B62
:10D6C0004648B0EE490AF0EE690A0521784401F0B7
:10D6D000D1F953EC192B51EC100BFBF7E1FA41ECAB
:10D6E000100B51EC180B53EC102B002C0EDAFBF73F
:10D6F00030FA9DED061B53EC112BFBF7D1FA9DED93
:10D70000061B53EC112BFBF7C8FA35E0FBF721FAA7
:10D710009DED061B53EC112BFBF7C2FA41EC100BED
:10D720002F48784400EBC40090ED001B51EC100B27
:10D7300053EC112BFBF7AEFA9DED061B53EC112BAE
:10D74000FBF7A8FA41EC100B2648784400EBC40024
:10D7500090ED001B51EC100B53EC112BFBF79DFAD5
:10D7600041EC100B002DA2BFBDEC068B02B070BDCA
:10D7700051EC100B81F0004141EC100B01E700006F
:10D78000000010440000F07F182D4454FB21F93FA5
:10D79000182D4454FB21F9BF0000DC3F0000203E5F
:10D7A0000000F33F00000000000000000000F03F18
:10D7B0000000E63F00000000000000000000004004
:10D7C0000080034000000000000000000000F83F5F
:10D7D000000000000000F0BF8AF8000040F80000E0
:10D7E000CAF7000082F7000070B56F4E2DED040BF4
:10D7F0002DED048B82B0DDF824C0DDE907235C4207
:10D800002CF000411C4341EAD474069D22F00040F4
:10D81000B44205D86C422C4340EAD474B4420BD9CC
:10D820009DED081B9DED060B02B0BDEC048B04B012
:10D83000BDE8704001F0BEB9ACF14054A4F17F6482
:10D840001C430BD0022404EAAC7444EAD2740543AE
:10D850009FED578B9FED582B07D015E09DED060BE4
:10D8600051EC100B03F002F842E0002C11BF012C28
:10D870009DED060B02B0BDEC048B04BF04B070BD7F
:10D88000022C38D0032C3BD00B439FED4D1B9FED5A
:10D890004E0B0AD0B14218D1B04209D121F08041DB
:10D8A00020F08040099107900FE0002A15DA10E07F
:10D8B000474B7B44002C08BF93ED000B0DD0012C8F
:10D8C00010D0022C17D0032C1AD0B0421DD1002A40
:10D8D00003DAB0EE410AF0EE610A02B0BDEC048B4F
:10D8E00004B070BD93ED000B51EC100B81F00041C2
:10D8F00041EC100BF1E7B0EE480AF0EE680AECE7F5
:10D90000B0EE420AF0EE620AE7E7401A00159FED1A
:10D91000329B3C28C8BF8DED000B17DCBCF1000F1B
:10D92000BCBF10F13C0F8DED009B0FDB9DED080B94
:10D9300053EC102B9DED060B51EC100BFBF722FA6C
:10D9400005F0AAF802F092FFCDE90001B4B1012C74
:10D9500010D0022C9FED220B53EC102B9DED000BF1
:10D9600051EC100B19D0FBF795F953EC182BFBF782
:10D9700091F9BDE7019880F0004001909DED000B0A
:10D9800053EC192B51EC100BFBF790FA04BF02205B
:10D9900001F03AFA9DED000B9FE7FBF77BF953ECA2
:10D9A000182BFBF77AF9A3E70000F07F00000000D6
:10D9B000182D4454FB210940182D4454FB2109C063
:10D9C000182D4454FB21F9BF182D4454FB21F93F75
:10D9D000C2F700000000000000000000000000008E
:10D9E000075C143326A6A13C10EE101A08B5444A71
:10D9F0006846B2EB410F28D94FF0E640B0EB410F3B
:10DA000094BF00204FF0FF3000900098002861DBA9
:10DA100060EE000A10F0010F45D010F0020FDFEDAC
:10DA2000391A9FED391A00EEE11ADFED381A40EE8F
:10DA3000811A21EEA01AF0EE400A40EE010A08BF5A
:10DA4000F1EE600AB0EE600A08BD314B21F00042F1
:10DA500093423CD911F0004FDFED2E0A20EE201A40
:10DA6000DFED2D0A19BF31EE601A71EE200A31EE9A
:10DA7000201A71EE600ABDEEE01A11EE100A9FED59
:10DA8000271A00F0030000EEC10A9FED251A00904E
:10DA900000EEC10A9FED231A00EEC10A9FED221A83
:10DAA00000EEC10AB1E79FED211A9FED210A10F0A7
:10DAB000020F00EE810A9FED1F1A00EE801AB7EEEA
:10DAC000000A00EE810A18BFB1EE400A08BD01F05D
:10DAD000BFF89AE710EE100A4000B0F17F4F3CBF4C
