:020000040000FA
:10800000B83200204D83000039A40000FB8200003C
:10801000598300005B8300005D83000000000000C6
:108020000000000000000000000000005F8300006E
:1080300061830000000000004782000009AF0000DB
:108040009DA5000061A600004DB7000067830000F9
:108050006783000067830000C59500006783000008
:10806000E5B50000678300006783000067830000B8
:108070006783000067830000678300006783000058
:108080006783000067830000678300006783000048
:108090006783000067830000678300006783000038
:1080A0006783000067830000678300006783000028
:1080B00067830000678300000000000000000000EC
:1080C0006783000067830000678300006783000008
:1080D00067830000678300006783000000000000E2
:1080E0000000000000000000000000000000000090
:1080F0000000000000000000000000000000000080
:10810000000000000000000000000000000000006F
:10811000000000000000000000000000000000005F
:10812000000000000000000000000000000000004F
:10813000000000000000000000000000000000003F
:10814000000000000000000000000000000000002F
:10815000000000000000000000000000000000001F
:10816000000000000000000000000000000000000F
:1081700000000000000000000000000000000000FF
:1081800000000000000000000000000000000000EF
:1081900000000000000000000000000000000000DF
:1081A00000000000000000000000000000000000CF
:1081B00000000000000000000000000000000000BF
:1081C00000000000000000000000000000000000AF
:1081D000000000000000000000000000000000009F
:1081E000000000000000000000000000000000008F
:1081F000000000000000000000000000000000007F
:10820000DFF810D000F0C2FE00480047E9F500009A
:10821000AFF30080B8320020EFF3108072B67047E1
:1082200080F310887047434A1368012B04D04FF045
:1082300001031360404A1060404A116040484FF00B
:10824000805101607047EFF3108272B639480168BF
:1082500051B34FF0000101603748016891B1EFF36D
:1082600009811EF0100F08BF21ED108B21E9F00FDE
:108270004FF000041EF0100F08BF012441F8044D18
:10828000006801602D490968096808C9B1E8F00F64
:10829000002B18BFB1EC108B81F309884EF0100E43
:1082A000002B18BF2EF0100E82F310884EF0040E33
:1082B000704722490860EFF3148222F0040282F32F
:1082C00014881D494FF0000008601A494FF0010062
:1082D00008601C484FF47F01D0F8002041EA0201F9
:1082E000016017484FF0805101601748006800682E
:1082F00080F3088861B662B670471EF0040F0CBFA9
:10830000EFF30880EFF3098020E9F00F40F804ED67
:1083100040F804ED1EF0040F0CBF80F3088880F3D2
:10832000098800B509F08AFC5DF804EB4EF0040EF4
:10833000704700000C030020040300200803002005
:1083400004ED00E020ED00E008ED00E00648804785
:1083500006480047FEE7FEE7FEE7FEE7FEE7FEE72A
:10836000FEE7FEE7FEE7FEE72DAF0000018200001A
:108370002DE9F05F0546002092469B46884606465A
:10838000814640241BE0284641464746224600F0ED
:1083900019FC53465A46C01A914110D3114618464B
:1083A000224600F000FC2D1A67EB01084F462246DA
:1083B0000120002100F0F7FB17EB00094E41201EC1
:1083C000A4F10104DFDC484631462A464346BDE8B5
:1083D000F09F000000487047684A010010B504464D
:1083E000FFF7F8FF0068005D00F0010010BD40EAF3
:1083F00001039B0703D009E008C9121F08C0042A23
:10840000FAD203E011F8013B00F8013B521EF9D209
:108410007047D2B201E000F8012B491EFBD2704731
:108420000022F6E710B513460A4604461946FFF740
:10843000F0FF204610BD10B5044604E00B7800F8AC
:10844000013B03B1491C521EF8D2204610BDCAB2EE
:10845000401E10F8011F8A4202D00029F9D10020E5
:108460007047421C10F8011B0029FBD1801A70478D
:1084700010B5002200E0521C835C8C5CA34201D149
:10848000002BF8D1D8B2E1B2401A10BD30B5054684
:108490000020034600E05B1C934205D2EC5CC85C04
:1084A000201A01D1002CF6D130BD00000FB400B568
:1084B0008DB010A909900B9000914FF0FF300A90F9
:1084C00000200C9005480690054807906A4609A8C8
:1084D0000F9900F0ADFB0DB05DF814FB4D8C000062
:1084E0006B8C00002DE9FF5F1D464FF0FF3BD5E987
:1084F000014691465F464FF00008A9697F1C01982C
:108500008847296A824688470028F6D1BAF1FF3F9A
:108510000CD024F4C064002E19DD600614D5BAF125
:108520002B0F09D0BAF12D0F0ED103E0584604B03D
:10853000BDE8F09F44F48064A9697F1C01988847D6
:10854000761E8246002E02DDBAF1300F03D0B9F15B
:10855000000F26D032E0A969761E44F400747F1C17
:10856000019888478246002E05DDBAF1780F06D0C3
:10857000BAF1580F03D0B9F1000F10D01EE0B9F1D5
:10858000000F02D0B9F1100F18D1A969761E24F49A
:1085900000747F1C019888478246102002E0082062
:1085A00000E00A20814609E008FB0908A969761E57
:1085B00044F400747F1C019888478246002E05DD34
:1085C0004946504600F020FB0028EDDAE9690198A1
:1085D0008847A00502D46FF00100A8E7E00725D185
:1085E000600613D5600502D5C8F1000000E04046E2
:1085F00029680A1D2A600968220501D5087015E05E
:10860000220701D5088011E008600FE02868011DED
:1086100029600068210502D580F8008006E0210766
:1086200002D5A0F8008001E0C0F8008038467EE75F
:108630002DE9FF5FD2E901A74FF000089169994643
:108640001446DDF838B0464601988847054659EA91
:108650000B0005D009E0A169761C01988847054602
:10866000216A284688470028F5D1681C03D05FEAB4
:10867000CA7005D015E04FF0FF3004B0BDE8F09FA0
:108680002068011D2160D0F800800AE05FEACA700E
:1086900001D108F8015BA169761C7F1E019888470B
:1086A0000546002F1ADD681C18D0B9F1000F0DD057
:1086B000E81705EBD060421120F01F0059F8221096
:1086C0002A1A012090400142E0D107E0BBF1000FDF
:1086D000DCD1216A284688470028D7D0E169019873
:1086E0008847BBF1000F07D1002E05DD5FEACA7095
:1086F00002D1002188F80010A068B84203DDBBF168
:10870000000F03D017B16FF00100B6E73046B4E7B1
:108710002DE9F04791460F4680460446002614F89E
:10872000015B2DB1FFF756FE0068405DC007F6D132
:108730002B2D02D02D2D18D0641E4A4639462046D6
:1087400000F0A4FA27B13968A14201D1C7F800802E
:1087500071054FF002040BD54042002803DD03F001
:1087600041F90460A007BDE8F08746F48066E4E7BD
:108770000028F8DA03F036F904606FF00040F2E701
:108780002DE9F05F93460F4680460446002603F02D
:1087900029F9D0F80090824614F8015B2DB1FFF75B
:1087A00019FE0068405DC007F6D12B2D02D02D2D9B
:1087B0001AD0641E0021CAF800105A4639462046D5
:1087C00000F064FA014627B13868A04201D1C7F829
:1087D0000080DAF80000022809D0CAF8009070057D
:1087E00005D54842BDE8F09F46F48066E2E70846BA
:1087F000F8E770B5064603F0F5F8046805460A2266
:1088000000213046FFF784FF2C6070BD2DE9FE4F3C
:10881000804681EA0300C00F0C46009021F0004121
:1088200023F00045B8EB0200A94105D2404621469D
:1088300090461C460B46024623F00040104347D0AA
:10884000270DC7F30A00C3F30A510290401A0190A2
:1088500040286BDAC3F3130040F4801B0098924663
:1088600020B10023D2EB030A63EB0B0B01985946AE
:10887000C0F14002504600F096F906460D465046BB
:108880005946019A00F0AEF910EB0800614100244E
:1088900087EA115284EAE7731A4340D0009A62B320
:1088A000019A012A4FEA075215DC001B61EB020115
:1088B0004FF0004202EA0752CDE90042001C41F5A8
:1088C000801132462B4600F076FA03B0BDE8F08FF7
:1088D00040462146F9E7001B61EB0201001C41F50F
:1088E000801300185B412018A2F5001747EB030125
:1088F00040EAD570B6196D4111E06D084FEA3606B1
:1089000045EAC0754FEA0752001B61EB0201001CEB
:1089100041F5801149084FEA3000001951413246B3
:108920002B4603B0BDE8F04F00F036BA00980122A4
:1089300040000023D0EB020263EBE0730098214675
:108940004FEAE074B8EB000061EB0401E9E783F063
:1089500000435BE781F0004158E72DE9FE4F81EAD3
:10896000030404F0004421F0004100944FF0000B98
:1089700023F0004350EA01045ED052EA03045BD0C6
:10898000C3F30A54C1F30A552C44A4F2F3340194FE
:10899000A0FB0254C1F3130141F48011C3F313038C
:1089A00043F4801301FB024400FB034E840A970A40
:1089B00044EA815447EA8357A4FB076802958D0A6D
:1089C00005FB07854FEA932C04FB0C542705029DF9
:1089D0004FEA065847EA1637B5EB08056EEB070C69
:1089E000870E920E47EA811742EA8312A7FB020123
:1089F000B6EB0B0164EB00042B0D43EA0C335E185D
:108A000044EB1C50DA465146E7FB0201C5F3130460
:108A10004FEA0B3343EA14534FEA0432019C43EA12
:108A20000603A4F10C040294009CCDE900B400F00C
:108A3000C2F903B0BDE8F08F00200146F9E72DE947
:108A4000F04D81EA030404F0004B21F00045144688
:108A50004FF0000A23F0004150EA050220D054EA0A
:108A600001021DD0C5F30A570246C5F31303C1F333
:108A70001300C1F30A5640F4801543F48013A7EBAA
:108A80000608101BD64608F2FD3873EB050002D32A
:108A900008F1010801E092185B41B8F1000F03DA18
:108AA00000200146BDE8F08D00204FF480110646FD
:108AB00084460EE0171B73EB050705D3121B63EB0F
:108AC000050306434CEA010C49084FEA30009218AE
:108AD0005B4150EA0107EDD152EA030012D082EA6D
:108AE000040083EA0501084305D0101BAB4106D200
:108AF0000122002306E000224FF0004302E06FF065
:108B0000010253101AEB06004CEB085110EB0A005F
:108B100041EB0B01BDE8F04D00F03EB900F0004222
:108B200030F000400AD0C10D01F56071C0F31600AD
:108B300042EA0151C2084007114370470020014634
:108B4000704701F0004330B421F0004150EA0102C7
:108B500006D00A0DA2F56072C1F31301002A02DCEF
:108B600030BC00207047440F44EAC104C100E01843
:108B700030BC00EBC25000F0D8B830B50B4601460F
:108B800000202022012409E021FA02F59D4205D3AC
:108B900003FA02F5491B04FA02F52844151EA2F156
:108BA0000102F1DC30BD202A04DB203A00FA02F198
:108BB000002070479140C2F1200320FA03F31943CB
:108BC00090407047202A04DB203A21FA02F000216D
:108BD000704721FA02F3D040C2F1200291400843CD
:108BE00019467047202A06DBCB17203A41FA02F0DB
:108BF00043EAE07306E041FA02F3D040C2F12002FA
:108C000091400843194670473A2800D2303820F086
:108C10002002412A01D3A2F13700884201D34FF04C
:108C2000FF3070470268114413780160184670479E
:108C3000D16004495161044911620021116111465A
:108C400000F0B6B9258C0000DD830000426842B117
:108C5000016811F8013B23B1521EC0E90012184609
:108C600070470121C160881E704742685AB1C368CD
:108C7000016843B983688B4205D0491E521CC0E984
:108C80000012002070474FF0FF3070472DE9F05F71
:108C900082460078002715468B460AF10104B94642
:108CA000302801D09DB113E014F8010B012778287A
:108CB00003D0582801D045B10AE00DB1102D07D1DD
:108CC0000027102514F8010B02E0082500E00A2512
:108CD0000026B0460EE005FB080005FB06F1012763
:108CE00001EB10461FFA80F8B6F5803F00D3B94675
:108CF00014F8010B2946FFF787FF0028EBDABBF1D8
:108D0000000F05D00FB1641E00E05446CBF80040C0
:108D1000B9F1000F06D002F065FE02210160C81E05
:108D2000BDE8F09F48EA0640FAE70029A8BF70476F
:108D3000401C490008BF20F00100704710B4B0FA91
:108D400080FC00FA0CF050EA010404BF10BC70472C
:108D500049B1CCF1200421FA04F411FA0CF118BF46
:108D6000012121430843A3EB0C01CB1D4FEA006115
:108D70004FEA102042BF002010BC704700EBC350E8
:108D800010440029A4BF10BC7047401C490008BF14
:108D900020F0010010BC704710B5141E73F10004E0
:108DA00008DA401C41F1000192185B411A4301D1DD
:108DB00020F0010010BD2DE9F04D92469B4611B107
:108DC000B1FA81F202E0B0FA80F220329046FFF769
:108DD000EAFE04460F4640EA0A0041EA0B01534608
:108DE0005A46084313D0114653EA010019D0C8F17E
:108DF00040025046FFF7E6FE05460E4650465946ED
:108E00004246FFF7D0FE084305D0012004E020468B
:108E10003946BDE8F08D0020054346EAE0762C4354
:108E200037430A986305E40AA0EB08000022FD0A14
:108E300044EA47540A3002D500200146E9E701051B
:108E400010196941DDE9084500196941BDE8F04D97
:108E5000A2E72DE9F04D00231A461B1A8A4103DBD5
:108E600000200146BDE8F08DC1F30A52C1F31301A1
:108E700041F480154FF0000BD10702D100186D416D
:108E8000521E0027044640F2FF11384601EB620AE9
:108E90003E468046024600204FF48011FFF792FEC6
:108EA000C2197141BB1846EB0100B4EB030C75EB22
:108EB000000C04D3E41A65EB000517460E4624198E
:108EC00008F101006D4180463428E3DDF91946EBD5
:108ED0000600091BA84103D24FF0FF32134601E000
:108EE000002213461BEB070046EB0A51BDE8F04D8C
:108EF000FFF752BFC1F30A52C1F3130140F2FF332F
:108F000041F480119A4202DA00200146704740F293
:108F100033439A42A2F2334202DC5242FFF752BE7E
:108F2000FFF741BE30B5041E71F1000404DB4FF0C1
:108F30000044404264EB0101141E73F1000405DBA0
:108F40001C464FF00043524263EB0403994208BFB2
:108F5000904230BD002801DBC0F10040002901DB58
:108F6000C1F10041814202D24FF0004004E04FF0D5
:108F7000005001D14FF0C0404FEA2062EFF3008172
:108F800062F31F6181F3008870470000064C074DB3
:108F900006E0E06840F0010394E8070098471034C9
:108FA000AC42F6D3FFF730F93853010058530100B3
:108FB0002DE9F34F8BB04FF0000801F10C000C4687
:108FC0004FF0010B46460DF1080A0190626901213C
:108FD00001989047051E2DD0252D2CD0216A884759
:108FE000C0B16269012101989047216A8847002831
:108FF000F7D1411E62690198904700E0761CA16993
:109000000B988847216A88470028F7D1E1690B98B7
:109010008847DBE7A1690B9888470746A84201D13A
:10902000761CD3E7E1690B9888477F1C02D1B8F121
:10903000000F6FD047E1002762693D46394601982D
:1090400090472A2804D1626901210198904701259F
:10905000DFF888926269012101989047A0F1300100
:109060000A290AD24F45E5DC07EB870100EB4107EF
:10907000303FDFD445F01005ECE7E90601D46FF08E
:1090800000476C280AD04C2814D0682815D06A28CC
:109090000DD074281CD07A281AD01DE062690121F5
:1090A000019890476C2802D045F0040514E045F083
:1090B00002050DE045F020050AE0626901210198F2
:1090C0009047682802D045F0080505E045F40065A2
:1090D0006269012101989047C4E9015765283DD094
:1090E00019DC58287AD00CDC452837D004DC252838
:1090F00026D0412831D131E046282FD047282CD125
:109100002CE05B2877D0612828D063287CD06428A5
:1091100023D15AE0D1E06F2848D008DC66281DD062
:1091200067281BD0692821D06E2816D127E0702827
:1091300045D0732868D0752847D078280DD14DE0E8
:10914000A1690B988847054625283FF469AFE16976
:109150000B9888476D1C3FF46AAFB4E023466A461B
:109160006FF001000B99AFF300809FE045F04000E5
:109170006060A80723464FF0000236D43EE0E807BF
:109180007FF447AF2068011D21600068290501D5E3
:1091900006701BE7290701D5068017E7A90703D545
:1091A000F117C0E9006111E706600FE745F04000E4
:1091B0006060A80723464FF0080216D41EE040F670
:1091C0000E0125EA0100606016E045F04000606095
:1091D000A80723464FF00A0207D40FE045F04000ED
:1091E0006060A80708D5234610226FF001000B9994
:1091F000AFF300805AE007E0234610226FF0010031
:109200000B99FFF76FF951E04FF000094F464B46BD
:10921000632802D05B2807D041E02079C00601D442
:109220000120A06001273AE062690121019890477E
:109230005E2805D14FF001096269494601989047BF
:10924000216939B900210A46534643F82120491CB7
:109250000829FADBB0B3216969B9C11700EBD16203
:1092600053110AEB830122F01F02821A01200B68BE
:10927000904003430B6062690121019890475D288B
:10928000E8D1B9F1000F09D00020514651F8202053
:10929000D24341F82020401C0828F7DB02AB2246CD
:1092A00000976FF001000B99FFF7C2F900280CDA64
:1092B000401C08D1BBF1000F05D04FF0FF300DB0BE
:1092C000BDE8F08FFFE74046F9E7E90701D108F173
:1092D000010806444FF0000B78E60000CCCCCC0C23
:1092E00070B58C1810F8015B15F0070301D110F868
:1092F000013B2A1106D110F8012B03E010F8016B95
:1093000001F8016B5B1EF9D12B0705D40023521E17
:109310000DD401F8013BFAE710F8013BCB1A921C7F
:1093200003E013F8015B01F8015B521EF9D5A1427D
:10933000D8D3002070BD000010B508680A220021B3
:10934000401CFFF71DFA04460A49A0F51660884242
:1093500084BF012010BD214607A004F08FFC0948FE
:10936000416CA14203D04464203006F05DFD002032
:1093700010BD0000207B1E00424155443D25640D78
:109380000A000000D40400200020012291078A6016
:109390000A60064A0649136813F0010F01D0002045
:1093A0007047401C8842F6DB012070470C040040E7
:1093B000A08601000548016841F080710160044801
:1093C000016841F00101016070470000FCED00E020
:1093D000001000E04FF0E020016941F0040101615C
:1093E0006FF07F4141610648074A06490068B0FBBB
:1093F000F2F04FF47A720860504348607047000002
:10940000CC030020CC01002040420F0010B50868BA
:109410000A220021401CFFF7B3F905490028086C17
:109420000CBF20F0010040F001000864002010BDD6
:10943000D40400202DE9F041242004F087FC0646E6
:109440000C2004F083FC8046242004F07FFC0546B9
:109450000C2004F07BFC304C0746242204F5BC7140
:109460003046FEF7C4FFD4F89C11C8F80010D4F8B9
:10947000A011C8F80410D4F8A411C8F808102422C8
:1094800004F5D8712846FEF7B2FFD4F8D41139603C
:10949000D4F8D8117960D4F8DC11B96004F0F8FF81
:1094A00005F0A6F82422314604F5BC70FEF79FFFB4
:1094B000D8F80010C4F89C11D8F80410C4F8A01112
:1094C000D8F80800C4F8A4012422294604F5D8706D
:1094D000FEF78DFF3968C4F8D4117968C4F8D81143
:1094E000B868C4F8DC0104F1200006F09DFC3046A9
:1094F00004F0A0FB404604F09DFB284604F09AFBD4
:10950000384604F097FB054804F0B8FB04F003FD6F
:109510000020BDE8F0810000D40400205CAC000015
:10952000094B0221196009490A68002AFCD0084A3F
:10953000106008680028FCD0002018600868002827
:10954000FCD000207047000004E5014000E4014029
:1095500008E501404FF48050704770472DE9F04F07
:109560000023002A27D9DFF854C0154F4FF0FF0819
:109570004FF001099A46C51805F00304A543E4001D
:10958000CE5C08FA04FED5F800B006FA04F42BEA23
:109590000E0B04EB0B06C7F80090DCF80040002C23
:1095A000FBD02E60DCF80040002CFBD0C7F800A0F8
:1095B0005B1C9342DFD30020BDE8F08F00E4014044
:1095C00004E501402DE9F04108F0F8FD154F0024B5
:1095D00007F108052646A00000F1804000F5C040D4
:1095E000D0F80011012916D13346C0F80061395D69
:1095F000002015F830208A4202D105EBC00302E0BA
:10960000401C2028F5D3002B1CBF5968002902D02C
:109610004FF000008847641C082CDCDBBDE8F041FB
:1096200008F0E6BDC000002070B50C4605460A2AC9
:109630004AD2DFE802F005190F492349494923328C
:10964000FF22284601F046FC00222146284600F071
:109650008FF839E00122284601F03CFC0022214627
:10966000284600F085F82FE00022284601F032FC61
:1096700000222146284600F07BF825E0042A4FF01E
:10968000010000FA04F00CBF1049114908600122E2
:109690002146284600F06CF816E00122284600F02A
:1096A00067F80A490120A0400860A00000F1A0412D
:1096B000D1F8000720F4E060C1F80007D1F80007F6
:1096C00040F4C060C1F80007284670BD080500508E
:1096D0000C05005002480068C84000F001007047C7
:1096E0001005005001208840002A14BF014902499A
:1096F00008607047080500500C05005010B41B4A64
:1097000001234FF0400C082829D2DFE800F0040BB9
:109710000E1114171A21002914BFC2F80433C2F81D
:1097200008331CE00220A9B917E0042091B914E025
:10973000082079B911E0102061B90EE0202049B964
:109740000BE0002914BFC2F804C3C2F808C306E046
:10975000802011B1C2F8040301E0C2F808034FF001
:10976000E020C0F800C110BC00207047006000403D
:10977000880000F1A040D0F8003723F00203C0F8C1
:10978000003701208840012A02BF0649086070475F
:1097900005490860091D0860081D016821F00101E4
:1097A00001607047180500501C05005030B585B0A9
:1097B000086804AB6A4631A1FEF778FE02283DD165
:1097C00030A16846FEF754FE2F4C60B12FA16846C9
:1097D000FEF74EFE002837D02DA16846FEF748FE62
:1097E000002837D02AE00499481E102804D31021FD
:1097F00028A004F043FA21E02DA004F03FFAD4F8A9
:10980000D00004994FF47F4220F47F4002EA012106
:109810000843C4F8D00004F1200006F005FB04F072
:10982000ABF92B4844682B48057804F0A7F90CB134
:10983000A04706E02DB1284804F020FA05B0012029
:1098400030BD05B0002030BD24A004F017FA05B0EB
:10985000012030BD28A0049904F010FAD4F8D000FB
:10986000049920F07F4040EA0160C4F8D00004F180
:10987000200006F0D9FA05B0002030BD3D25337335
:109880002C256400434E5400D4040020465251005D
:10989000524F4C00434E54206F7574206F662072F7
:1098A000616E67652028312D2564290D0A000000AE
:1098B0006D617820747261636B61626C65206E6F9C
:1098C0006465732073657420746F3A25640D0A0013
:1098D000B01D00206C03002048A500004572722EC8
:1098E000205573652041542B4F445220696E737488
:1098F0006561642E0D0A0000726620726F6C65202F
:1099000073657420746F3A25640D0A0070B50C46B7
:109910000868FEF7A6FD0F4DA8B120680A220021B5
:10992000401CFEF72DFF042812D8D5F8D010C0B285
:1099300021F0FF010843C5F8D00005F1200006F032
:1099400073FA002070BD95F8D01003A004F096F9CA
:10995000012070BDD404002025640D0A0000000021
:1099600070B50C460868FEF77CFD0F4DA8B1206865
:109970000A220021401CFEF703FFFF2812D8D5F869
:10998000D010C0B221F0FF010843C5F8D00005F1A6
:10999000200006F049FA002070BD95F8D01003A011
:1099A00004F06CF9012070BDD404002025640D0A78
:1099B00000000000002812BF002001480068704726
:1099C000CC030020014800687047000000040040FC
:1099D0004FF080510A6E0260496E4160704700008E
:1099E000084A094981B0107851F82000D0F81011C8
:1099F0000029FBD00021C0F8101150788DF800002C
:109A000001B07047F0010020BC47010070B50C4662
:109A10000868FEF726FD0B4D78B120680A22002168
:109A2000401CFEF7ADFE296B814204D0286305F18E
:109A3000200006F0F9F9002070BD03A0296B04F0A6
:109A40001DF9F8E7D404002025640D0A0000000089
:109A50002DE9F0410C462DED028B9AB00868F5A176
:109A6000FEF706FDF44E28B1F4A12068FEF700FDD4
:109A7000002839D106F002FB03F050FD60B9F04830
:109A8000B26EF0A150F82230F0A004F0F7F8F3A184
:109A9000F3A0326B04F0F2F8D6E90A23F3A1F5A0A3
:109AA00004F0ECF8B06CF6A1020CF7A004F0E6F8B4
:109AB00096F8D020F7A1F9A004F0E0F803F02EFD0D
:109AC00090B1B6F8D000C0F30725002D08BF0125DE
:109AD0002A46F5A1F1A004F0D1F8012D0BD06A1EA1
:109AE000F4A1F7A004F0CAF8F8A12068FEF7C0FCC2
:109AF000002826D104E0EFA1F6A004F0BFF8F3E7B8
:109B0000B6F8F222F6A1E0A004F0B8F8F6A1F9A0A8
:109B1000D6F8E82204F0B2F896F88000F94900F08F
:109B20000F000A5CF8A1FAA004F0A8F8D6F88000AB
:109B30001E2101EAD000F9490A5AF9A1FAA004F05D
:109B40009DF8FDA12068FEF793FC50B904F0E7F9F9
:109B5000054604F0E6F9B5FBF0F2F9A1FAA004F02D
:109B60008DF8FCA12068FEF783FC00282CD106F5B7
:109B7000B871FAA003F02EFE032206F5CE71F9A00B
:109B800003F04CFE032206F53071F9A003F046FE07
:109B900006F5D471F9A003F01DFE032206F5EA7163
:109BA000F0A003F03BFE032206F52D71F5A003F0B3
:109BB00035FE06F5F071F6A003F00CFE032206F563
:109BC0000371E8A003F02AFEF3A12068FEF750FC21
:109BD0009FEDF38A00284FD1A0A1B0A0326B04F012
:109BE0004DF898A1ADA0B26E04F048F896F8D020D8
:109BF000A8A1AAA004F042F8EAA1A8A0726C04F0FF
:109C00003DF8D6F88400FEF789FF41EC100BE7A180
:109C100053EC102BE7A004F031F8D6F88C00FEF7D7
:109C20007DFF41EC100BE7A153EC102BE1A004F0F9
:109C300025F8D6F89000FEF771FF41EC100BE4A177
:109C400053EC102BDBA004F019F8D6F89400FEF7C3
:109C500065FF41EC100BE1A153EC102BD5A004F0F3
:109C60000DF8B6F8F422DFA18CA004F007F806F591
:109C7000A271DFA003F0AEFDDFA12068FEF7F8FBC4
:109C8000D0B996F8D02083A184A003F0F7FFB6F8EE
:109C9000D000DAA1C0F3072280A003F0EFFFB06C80
:109CA000DAA1020C7DA003F0E9FFD6F8D000D9A11B
:109CB000020E7AA003F0E2FFD8A12068FEF7D8FBDD
:109CC00050B905F019FB05F02BF904F02AF902460A
:109CD000D4A16DA003F0D2FFD4A12068FEF7C8FB89
:109CE00040B1D4A12068FEF7C3FB002800F0B68283
:109CF00000F0E7BAF56E022D88BF00252F46022D31
:109D000002BF96F8640010F0010F0127684604F0C6
:109D1000B5FBDFF8288304462A4658F82530C8A149
:109D2000CAA003F0ABFF58F827303A46CBA1C7A032
:109D300003F0A4FFCDA16FA0726E03F09FFF002C73
:109D400014BF9DED000AB0EE480A10EE100AFEF7AF
:109D5000E5FE41EC100BC8A153EC102BC9A003F099
:109D60008DFF002C14BF9DED050AB0EE480A10EEE1
:109D7000100AFEF7D3FE41EC100BC6A153EC102BDA
:109D8000C0A003F07BFF002C14BF9DED010AB0EED4
:109D9000480A10EE100AFEF7C1FE41EC100BBFA1FD
:109DA00053EC102B83A003F069FF002C14BF9DED32
:109DB000020AB0EE480A10EE100AFEF7AFFE41ECC0
:109DC000100BB8A153EC102B7AA003F057FF002C16
:109DD00014BF9DED030AB0EE480A10EE100AFEF71C
:109DE0009DFE41EC100BB1A153EC102B71A003F0C0
:109DF00045FF002C14BF9DED040AB0EE480A10EE9A
:109E0000100AFEF78BFE41EC100BAAA153EC102BAD
:109E100068A003F033FF002C14BF9DED060AB0EEDE
:109E2000480A10EE100AFEF779FE41EC100B53ECD5
:109E3000102B43E100000000D40400203D4C000042
:109E4000200300204D4F44453A000000252D3136B7
:109E5000732564282573290D0A00000049443A003F
:109E6000252D313673307825580D0A005555494453
:109E70003A000000252D313673255825580D0A006B
:109E80004F44523A00000000252D313673256448B6
:109E90007A0D0A00475749443A000000252D313613
:109EA0007325640D0A0000004D4158204E4F444573
:109EB000533A0000534C4156452049443A000000B3
:109EC000252D313673307E25640D0A003D53454EF5
:109ED000534F5200252D313673300D0A000000001B
:109EE000677972206672710073656E736F7220738A
:109EF00074730000252D3136733078253038580DB5
:109F00000A000000100300204143435F52473A001B
:109F1000252D3136732564470D0A000014030020F7
:109F20004759525F52473A00252D313673256464F4
:109F300070730D0A000000003D4350550000000002
:109F400074696D6500000000252D3136732564208D
:109F5000730D0A003D43414C000000004143430D96
:109F60000A0000006E6F68656164657200000000A1
:109F70005243204143430D0A000000004759520D4F
:109F80000A0000005243204759520D0A0000000009
:109F90004D41470D0A0000003D555352000000009E
:109FA00000000000424155443A00000047425F541F
:109FB00048523A00252D31367325302E34660D0A6D
:109FC000000000004C4D465F5448523A000000002B
:109FD0005A5354445F5448523A0000005A444D4189
:109FE000583A0000494D555F434F4F52443A0000E4
:109FF000555246520D0A00003D5246004D41585FF1
:10A000004E4F44455F53495A453A00004652513A33
:10A0100000000000524F4C453A0000003D53595398
:10A02000000000006F73207469636B003D44524967
:10A03000465400003D4853490000000054030020EE
:10A0400044524946545F4D4F44453A00252D313620
:10A0500073256420282573290D0A000044524946BF
:10A06000545F4150504C593A000000004655535F30
:10A0700043544C3A0000000044524946545F573A5A
:10A0800000000000252D31367325302E36660D0A6E
:10A090000000000057425F4546463A00575F414383
:10A0A000433A0000575F5354443A0000575F475902
:10A0B000523A0000575F5241573A000082A1AFF276
:10A0C0000C1003F0DBFD002C18BF9DED078A18EE85
:10A0D000100AFEF723FD41EC100B7EA153EC102B70
:10A0E000AFF2301003F0CAFDD6F8CC02FEF716FD31
:10A0F00041EC100B7AA153EC102BAFF2481003F097
:10A10000BDFDD6F8D402FEF709FD41EC100B77A196
:10A1100053EC102BAFF2641003F0B0FDD6F8D80268
:10A12000FEF7FCFC41EC100B73A153EC102BAFF2CB
:10A130007C1003F0A3FD002C14BF1298D6F8840005
:10A14000FEF7ECFC41EC100B6EA153EC102BAFF2C0
:10A150009C1003F093FD002C12BF139806F19000A1
:10A16000D6F89000FEF7DAFC41EC100B68A153EC36
:10A17000102BAFF2C01003F081FD002C12BF149819
:10A1800006F19400D6F89400FEF7C8FC41EC100BE1
:10A1900062A153EC102BAFF2E41003F06FFD62A14B
:10A1A000AFF2B020D6F8EC2203F068FDB6F8F62244
:10A1B00060A163A003F062FD002C31D063A160A018
:10A1C000169A03F05BFD65A15DA0159A03F056FD9C
:10A1D00065A15BA0179A03F051FD66A158A0189ADB
:10A1E00003F04CFD0898FEF799FC41EC100B64A1BC
:10A1F00053EC102BAFF2442003F040FD03226C46D9
:10A2000009A962A003F00AFB032204F1300163A054
:10A2100003F004FB032204F13C0163A003F0FEFA07
:10A22000032206F5377164A003F0F8FA032206F55D
:10A230002D7164A003F0F2FA032206F5187165A0EF
:10A2400003F0ECFA032206F52A7165A003F0E6FAA2
:10A2500000201AB0BDEC028BBDE8F081B6F8A40076
:10A2600062A1C0F30722AFF2CC3003F007FDD6F8AD
:10A27000A800FEF753FC41EC100B5EA153EC102B31
:10A280005EA003F0FBFC96F8A4205FA161A003F0A0
:10A29000F5FCD6F8AC00FEF741FC41EC100B60A1D8
:10A2A00053EC102B55A003F0E9FCD6F8B000FEF7F4
:10A2B00035FC41EC100B5CA153EC102B4FA003F0CC
:10A2C000DDFC0020C5E700004143435F4E4F524D87
:10A2D0003A0000004156475F4759523A00000000DB
:10A2E0005354445F4143433A000000004759525FD2
:10A2F00054454D503A00000054454D505F42415383
:10A30000453A0000424941535F5448523A00000028
:10A310005354445F5448523A0000000044454C54A2
:10A32000415F4D41583A0000544553545F43544CEB
:10A330003A0000005359535F52435F434E543A0072
:10A34000252D313673256C750D0A00005A41525582
:10A350005F52435F434E543A000000005A41525549
:10A360005F53554D3A0000005A4152555F555044D5
:10A370003A0000005A4152555F4C4153543A000094
:10A380005A4152555F5354443A0000005A415255C5
:10A390005F5354445F58595A0D0A00005A415255B0
:10A3A0005F424941530D0A005A4152552052432001
:10A3B0004759520D0A000000535953204249415356
:10A3C0000D0A0000535953205243204759520D0A99
:10A3D0000000000043414C204759520D0A00000084
:10A3E00043414C20475952320D0A000076616C6996
:10A3F000643A00006669746572723A00252D313640
:10A400007325660D0A00000062696E5F73746174E3
:10A4100075733A00252D313673256425250D0A0004
:10A42000666C75783A000000696E636C696E6174E1
:10A43000696F6E3A0000000010B500F001F810BD21
:10A44000704700002DE9F047086800260A223146CF
:10A45000401CFEF795F90546401EB0F5C87F24BFA5
:10A460000120BDE8F087DFF8B880D8F84800B5EBE8
:10A47000104F05D080B240EA05400126C8F84800D8
:10A480001FFA85FA03F078FBDFF89890D9F8087086
:10A4900003F074FB002417B15046B847044664B17A
:10A4A000D8F8D000C0F30721A14206D020F47F40A5
:10A4B00040EA0420C8F8D00000E01EB108F12000F6
:10A4C00005F0B2FC184EACB12246294617A003F0A5
:10A4D000D5FB03F051FB3578D9F8044003F04EFB6F
:10A4E0000CB1A04719E0C5B117A003F0C7FB0120CC
:10A4F000BDE8F087AFB203F03FFB3578D9F80040F4
:10A5000003F03CFB14B13846A04706E02DB119A07A
:10A5100003F0B4FB0120BDE8F0870020BDE8F08720
:10A52000D4040020B01D00206C0300204F44523D95
:10A53000256420487A2C206D6178206E6F646573E5
:10A540003D25640D0A00000052462072756E746944
:10A550006D6520686F6F6B206D697373696E673A04
:10A5600020636F6E6669675F6368616E6765640D1F
:10A570000A00000052462072756E74696D6520688D
:10A580006F6F6B206D697373696E673A206F6472C9
:10A590005F6368616E6765640D0A000010B507F0BF
:10A5A0000DFE4FF08040D0F8081131B10021C0F805
:10A5B000081104480168491C0160BDE8104007F01B
:10A5C00017BE000000000020114918B40978114A94
:10A5D0008DF80000002352F821C0CCF81C3152F84D
:10A5E00021C0CCF8203152F821C00123CCF84835E5
:10A5F00052F82140C4F844D552F821C0CCF80830B4
:10A6000052F82110D1F81C21002AFBD018BC704749
:10A61000F0010020BC470100054A012303FA00F0C5
:10A620000029116814BF084321EA00001060704738
:10A63000301500400649086810F4807F14BF40F6CA
:10A6400038104FF41660096801F03F010844704764
:10A6500008150040014800687047000004150040DC
:10A6600070B507F0ABFD1C4CD4F830011B4D002633
:10A6700050B1C4F83061686830B1FFF7EBFF0022D9
:10A6800001466B6810469847D4F8340138B1C4F8D5
:10A6900034616B681BB10022114601209847D4F841
:10A6A0000C01002818BFC4F80C610D4800680A2886
:10A6B0000ED10021172003F0C5FA00F041F9A86877
:10A6C000002818BF00F01EF90121084600F0FEF82E
:10A6D000BDE8704007F08CBD00100040B4030020BE
:10A6E000501500401448134901600821021F1160F1
:10A6F000016821F0FF010160016841F08001016003
:10A700000E48022101600F490D480860091D4FF6EF
:10A71000FF7008600C490020C1F800020B48016876
:10A7200041F0010101600A49042008600949012043
:10A7300008607047FF000401181500403415004000
:10A740002110010038150040001000405016004054
:10A750000C150040FC1F00400149086070470000D4
:10A760000815004010B44FF0E02202234FF0010C16
:10A77000C2F800311B4A072824BF10BC7047DFE82D
:10A7800000F0120E041E23281A00082019B1C2F886
:10A79000040310BC7047C2F8080310BC70470420C3
:10A7A0000029F8D0F3E7002914BFC2F80433C2F837
:10A7B000083310BC704780200029ECD0E7E74FF445
:10A7C00080500029E7D0E2E74FF400500029E2D0A2
:10A7D000DDE7002914BFC2F804C3C2F808C310BCE7
:10A7E000704700000010004004490A6822F0FF0290
:10A7F0000A600A68C0B2104308607047181500402C
:10A800000749002818BF012807D0022808BF0320E5
:10A8100003D003280CBF0420704708607047000075
:10A8200010150040014908607047000020150040E5
:10A83000254B1A1D082828BF7047DFE800F0040BDD
:10A84000141C242B343C186820F0FF001860186892
:10A85000084306E0186820F47F401860186840EA52
:10A86000012018607047186820F47F00186018688D
:10A8700040EA0140F5E7186820F07F40186018684A
:10A8800040EA0160EDE7106820F0FF0010601068FA
:10A89000084306E0106820F47F401060106840EA2A
:10A8A000012010607047106820F47F00106010686D
:10A8B00040EA0140F5E7106820F07F401060106822
:10A8C00040EA0160EDE70000241500400C4A68B141
:10A8D000012818BF70470029D2F8000214BF40F0C9
:10A8E000200020F02000C2F800027047D2F80002D9
:10A8F000002914BF40F0010020F00100F3E7000040
:10A900000010004003490860034901208860486145
:10A91000704700000415004000100040054A106018
:10A920000548016005480021C0F80C110121816033
:10A93000704700002C150040041500400010004036
:10A9400030B41D4D6868401C68601C4A10680228BD
:10A950001FBF106801281068032804BF30BC70476F
:10A960004FF0000C1649C1F800C14FF001044C60D3
:10A97000D1F8003142F21070002B1CBF30BC704780
:10A98000401E13D2E868401CE86042F21070CC60B0
:10A990000C61136823B1401E02D31368002BFAD157
:10A9A000C1F800C1C1F80CC130BC7047D1F800310A
:10A9B000002BE5D030BC7047E81600205015004051
:10A9C0000010004030B4364C2068401C20603549EF
:10A9D00008680A281FBF0868092808680B2804BFF0
:10A9E00030BC704708684FF000034FF0010C2E4A4E
:10A9F00002281FBF086801280868032821D1C2F86F
:10AA00000CC00D6842F21070022D1AD0401E15D2F3
:10AA1000A068401CA06042F21070C2F80CC0C2F8DE
:10AA200010C0D1F800C0BCF1000F2DD0401E2BD3B8
:10AA3000D1F800C0BCF1000FF8D125E00D68022D5F
:10AA4000E4D1C2F80031C2F800C0D2F8005142F29D
:10AA50001070002D1CBF30BC7047401E1AD2A06879
:10AA6000401CA06042F21070C2F80CC0C2F810C0C6
:10AA7000D1F800C0BCF1000F06D0401E04D3D1F8BD
:10AA800000C0BCF1000FF8D1C2F80031C2F80C319F
:10AA900030BC7047D2F80051002DDED030BC70477A
:10AAA000E8160020501500400010004000B58BB0A3
:10AAB000002000900290039004900590069007906B
:10AAC00008900990086802AB6A460CA1FDF7EEFCFD
:10AAD000022805D00CA003F0D1F80BB0012000BD76
:10AAE00002A911A0009A03F0C9F8009802A9C0B207
:10AAF00006F0C8FB0BB0002000BD00003D25642C13
:10AB0000253331730000000075736167653A204199
:10AB1000542B5246434D443D3C69643E2C3C636D8E
:10AB2000643E0D0A0000000073656E6420222573E8
:10AB30002220746F206465766963655B25645D0D12
:10AB40000A00000070B5A4B00025684606F020FB9E
:10AB500003F03EF91849024618A091F8D01003F00E
:10AB60008DF8DDE900121CA003F088F801F036FF33
:10AB700001461EA003F082F821A003F07FF89DF8A3
:10AB8000880000240028C8BF6E460EDD06EBC40016
:10AB9000017AC26821A003F071F8681CC5B29DF863
:10ABA0008800641CA042F1DC15B921A003F066F80E
:10ABB00024B0002070BD0000D404002067776964D1
:10ABC0003A256420726164696F20667265713A2566
:10ABD000644D687A0D0A000054583A256C75487A1D
:10ABE0002052583A256C75487A0D0A0074726163D8
:10ABF0006B2063617061636974793A25640D0A00A2
:10AC0000726164696F20726F75746572207265631A
:10AC100076206465763A0D0A000000005B69643AAC
:10AC2000253033645D20256C7520487A0D0A0000BC
:10AC3000286E6F20616374697665206E6F6465208D
:10AC40007374617473290D0A0000000010B503A02D
:10AC500003F014F803F05FF9002010BD4F4B0D0A0C
:10AC6000000000002DE9F043086885B03D21FDF7A4
:10AC7000EEFB050059A0DFF874810FC88DE80F00C6
:10AC80004FF001076E461CBF68780D2816D00A28C1
:10AC90001EBF00284FF000094C460FD004AA54A153
:10ACA00005F10100FDF702FCC0B2012819D051A046
:10ACB00002F0E4FF05B00120BDE8F08352A002F0ED
:10ACC000DDFF0024D8F8480007FA04F108421FBF4E
:10ACD000315DFF2950A002F0D1FF641C102CF1DB84
:10ACE00071E000239DF810001946725CFF2A05D020
:10ACF000824203D107FA01F0044303E0491C102902
:10AD0000F3DBD3B12C21681C09F10109FDF79FFB8E
:10AD1000050002D0B9F1100FC0DBB9F1000F08D067
:10AD200014F4807F18BF14F4007F0BD03DA002F014
:10AD3000A5FF05B00120BDE8F083C1B244A002F038
:10AD40009DFFF6E750A002F099FF002507FA05F0F5
:10AD500020421FBF715DFF292FA002F08FFF6D1CE5
:10AD6000102DF3DBD8F84820D8F8D41093B201F0B6
:10AD700001000546A34214BF0123002314F4807F81
:10AD800018BF012523D0A84218BF012600D10026F4
:10AD900053EA060017D06FF30F0242EA0400C8F826
:10ADA000480026B121F001002843C8F8D40008F17A
:10ADB000200005F039F836B1002D0CBF092108211B
:10ADC00036A002F05BFF05B00020BDE8F08314F46C
:10ADD000007F18BF0025D6D1D9E7000091FFFFFF03
:10ADE000FFFFFFFF626393FFFFFFFFFFD40400201C
:10ADF000255800004552523A2062616420746F6BFE
:10AE0000656E0D0A000000007061636B6574206957
:10AE100074656D733A0D0A005B3078253032585DE9
:10AE20000D0A00004552523A203078363220616EC9
:10AE300064203078363320617265206D75747561D9
:10AE40006C6C79206578636C75736976650D0A00A2
:10AE50004552523A20756E6B6E6F776E206974653D
:10AE60006D20307825303258202876616C69643A3C
:10AE7000203078393120307836322030783633201F
:10AE800030783933290D0A006E6577207061636B65
:10AE90006574206974656D733A0D0A005246206628
:10AEA0006F726D6174206175746F3A30782530323D
:10AEB0005820287265626F6F7420746F2061707003
:10AEC0006C79290D0A000000014A5160106070473A
:10AED000E0010020880000F1A040D0F8001721F028
:10AEE0000C01C0F80017002A04BFD0F8001741F089
:10AEF000040106D0012A06BFD0F8001741F00C016A
:10AF00007047C0F80017704710B507F057F908F000
:10AF1000F7FDBDE8104007F06BB900000249014899
:10AF2000086070470090D003CC03002070B4B44890
:10AF3000B44A01250078111D2C074FF0000C06289B
:10AF400004BF137813F00F0F06D0062804BF137840
:10AF500013F00F0F13D10DE00B7803F0F003302B3B
:10AF60001CBF402B502BF0D1B4F82433A64EC3F3B2
:10AF7000042333600B7803F0F003302B0CD0062849
:10AF800004BF137813F00F0F0AD0062804BF1378FC
:10AF900013F00F0F17D111E09D4E9C4B736707E024
:10AFA0000B7803F0F003302B1CBF402B502BECD15F
:10AFB000D4F84432974EC3F3423333600B7803F036
:10AFC000F003302B0CD0062804BF137813F00F0FBA
:10AFD0000CD0062804BF137813F00F0F1CD116E015
:10AFE0008D4B1E6826F080761E6007E00B7803F01C
:10AFF000F003302B1CBF402B502BEAD14FF0804385
:10B00000C3F80CC1C3F810C1844BC3F800C00B785F
:10B0100003F0F003302B06D0062804BF137813F09A
:10B020000F0F0AD104E07E4E4FF0030333600BE0B4
:10B030000B7803F0F003302B06D0062804BF1378FA
:10B0400013F00F0F13D10DE0764E4FF00503336070
:10B05000754B1D60754BC3F800C006F104064FF038
:10B060003F0333600B7803F0F003502B0CD006281D
:10B0700004BF137813F00F0F58D0062804BF1078C0
:10B0800010F00F0F70D15FE0694B1B68694E3360A1
:10B09000694B1B6806F104063360684B1B6806F1B8
:10B0A00004063360664B1B6806F104063360654B8B
:10B0B0001B6806F104063360634B1B6806F1040647
:10B0C0003360624B1B68624E3360624B1B6806F153
:10B0D00004063360604B1B6806F1040633605F4B67
:10B0E0001B6806F1040633605D4B1B6806F104061D
:10B0F00033605C4B1B6806F1040633605A4B1B68D7
:10B100005A4E33605A4B1B6806F104063360594BA4
:10B110001B6806F104063360574B1B6806F10406F2
:10B120003360564B1B6806F1040633600B7803F05E
:10B13000F003302B1CBF402B502B9ED1D4F858026B
:10B140004F4A00F04F001060087800F0F0003028FF
:10B150001CBF4028502807D14A48016811F0010F50
:10B160001CBF6FF001010160D4F83001062804BF54
:10B17000D4F83401062804D14348016841F48061C1
:10B1800001604248016841F470010160BFF34F8FD4
:10B19000BFF36F8F4FF01022D2F8000210F0004F73
:10B1A00004BFD2F8040210F0004F23D0384B1D60CA
:10B1B000384801680029FCD04FF01504C2F800425D
:10B1C00001680029FCD0C2F8044201680029FCD0C3
:10B1D000C3F800C001680029FCD0BFF34F8F2E4890
:10B1E00001682E4A01F4E06141EA02010160BFF307
:10B1F0004F8FFEE72B492A48086070BC704700005B
:10B20000E00F00F0E40F00F0403501400DF0ADBA62
:10B2100000C007403C050040FCED00E03805004060
:10B22000A0050040105600408856004018560040C7
:10B230000404001020C50040080400100C04001095
:10B240001004001014040010180400101C04001056
:10B2500040C5004020040010240400102804001001
:10B260002C040010300400103404001060C50040AD
:10B27000380400103C040010400400104404001086
:10B28000E40E0040000400403C17004088ED00E060
:10B2900004E5014000E401400CED00E00400FA0583
:10B2A0000090D003CC0300202DE9F0478AB001F0D4
:10B2B0008FFB804601F092FB06000CBF0124044680
:10B2C00001F080FB0546414801F0CCFB824601F0CD
:10B2D0006DFB814601F070FB07463DA002F0CEFCFD
:10B2E000414643A002F0CAFCBAF1000F14BF082186
:10B2F000092144A002F0C2FC314648A002F0BEFC85
:10B3000049464BA002F0BAFC642015FB00F2294626
:10B310004DA002F0B3FC394655A002F0AFFC601E10
:10B3200010FB05F000EBC00101EB00104FF496712B
:10B3300001EB80043D1B54A002F0A0FC214659A063
:10B3400002F09CFC29465EA002F098FC00200190CF
:10B35000029003900490059006900790089005A82D
:10B36000009004AB03AA02A901A802F087FB08AA77
:10B3700007A906A802F070FB57A002F07FFC60A0AE
:10B38000069902F07BFC64A0079902F077FC68A0A4
:10B39000089902F073FC6CA002F070FC73A0019994
:10B3A00002F06CFC77A0029902F068FC7BA0039984
:10B3B00002F064FC7FA0049902F060FC83A0059970
:10B3C00002F05CFC0AB00020BDE8F087F404002025
:10B3D0003D3D3D2054444D4120436F6E6669677585
:10B3E000726174696F6E203D3D3D0D0A00000000E2
:10B3F000476174657761792049443A2020202025EF
:10B40000640D0A00524620466F726D61743A202026
:10B410002020203078253032580D0A004D617820E8
:10B420004E6F6465733A202020202025640D0A00A9
:10B4300041637475616C204F44523A2020202025CE
:10B440006420487A0D0A000044656C74613A20203B
:10B4500020202020202020256420287831303075BD
:10B4600073203D202564207573290D0A000000001B
:10B470004379636C6520506572696F643A202025BA
:10B480006C752075730D0A002D2D2D2054696D6982
:10B490006E6720416E616C79736973202D2D2D0DBF
:10B4A0000A0000004C617374204E6F64652054588C
:10B4B0003A20207E256C752075730D0A000000006F
:10B4C0004379636C65204D617267696E3A2020256F
:10B4D0006C752075730D0A002D2D2D205365726932
:10B4E000616C204F757420286C61737420616374E3
:10B4F00069766520317329202D2D2D0D0A0000005D
:10B500005472696767657220726174653A202025FC
:10B510006C7520487A0D0A0053656E742072617450
:10B52000653A2020202020256C7520487A0D0A00DD
:10B5300044726F702074785F627573792F733A2547
:10B540006C750D0A000000002D2D2D2053657269C9
:10B55000616C204F7574202873696E636520626F7B
:10B560006F7429202D2D2D0D0A0000004F757420B9
:10B570006576656E74733A20202020256C750D0A5F
:10B58000000000004672616D65732073656E743A49
:10B59000202020256C750D0A0000000044726F7099
:10B5A0002074785F627573793A2020256C750D0AD6
:10B5B0000000000044726F70206E6F2D6461746132
:10B5C0003A2020256C750D0A0000000054582074A4
:10B5D000696D656F7574733A202020256C750D0AAE
:10B5E0000000000010B506F0E9FD07490020C1F891
:10B5F0004001064803681BB100214268084698478D
:10B60000BDE8104006F0F4BD008000401C2F002073
:10B61000024A012152F82000C1607047A84701008A
:10B62000194B30B453F820C00324CCF81045DFF890
:10B630005CC002255200CCF8005053F820C04FF4F3
:10B64000A86505EB81054CF8052053F820204FF044
:10B65000010CC2F80CC053F820500022C5F8042594
:10B6600053F82020C2F8084553F82020D2F80042B1
:10B670000CFA01F12143C2F8001253F82000C0F87F
:10B6800000C030BC70470000A8470100EC0100205A
:10B690004FF0010C10310CFA01F30B49002A51F85C
:10B6A000201014BFC1F80433C1F808330749085605
:10B6B00000F01F010CFA01F14009800000F1E020C8
:10B6C000C0F8001170470000A8470100A44701001E
:10B6D000084B4FF0010C083153F820000CFA01F12F
:10B6E000002AD0F8002214BF114322EA0101C0F859
:10B6F00000127047A8470100DFF828C010B40223E9
:10B70000CCF800305300084A4FF4A86404EB8101E0
:10B7100052F820C04CF8013052F820000121C160DD
:10B7200010BC7047EC010020A8470100024A01212B
:10B7300052F8200001607047A8470100024A012129
:10B7400052F8200041607047A847010070B51E4DB7
:10B75000D5F810011D4C00281CBFD5F8040310F0CB
:10B76000100F1ED0208B10F4007F16D0184E606D85
:10B77000317801444FF0000000F02CF83078E16D92
:10B78000401CC0B2B0FBF1F201FB1200307040F27D
:10B7900003110E4806F086FB03E001210B4806F07A
:10B7A00081FBD5F8200100281ABFD5F8040310F456
:10B7B000807F70BD4FF00000C5F82001A06DBDE88E
:10B7C000704007F043BA00000020004074160020CB
:10B7D000C8010020084A52F82000D0F81021002AA1
:10B7E00004BF012070470022C0F8102103484078B0
:10B7F0000870104670470000BC470100F0010020AF
:10B8000070B51E4B082253F820C0CCF8002500224A
:10B8100084461C1D54F832508D4206D104EBC205FB
:10B8200053F82C606D68C6F82455521C0A2AF1D3CF
:10B8300053F82010D1F8002242F02002C1F8002273
:10B8400053F820200121C2F8381553F820C00C4AC3
:10B85000CCF8342553F82020116053F82020916053
:10B86000084C217839B10849087008490848FFF7A1
:10B870002BFB00202070002070BD0000BC470100A1
:10B88000F1010020E8010020F0010020E199000012
:10B89000C9A5000003B40F49002251F82030C3F8B5
:10B8A0001C2151F82030C3F8202151F8203001220A
:10B8B000C3F8482551F820C001ABCCF8443551F805
:10B8C00020309A6051F82000D0F81C110029FBD0DC
:10B8D00002B07047BC470100154B10B41B56012441
:10B8E00003F01F0C04FA0CFC5B099B0003F1E0233E
:10B8F000C3F800C10F4B39B1012902D0022907D08A
:10B9000012E010213AB90BE04FF480711AB907E048
:10B910004FF4003122B153F82000C0F8041303E0C3
:10B9200053F82000C0F8081310BC00207047000036
:10B93000B8470100BC4701000A4B10B453F820403F
:10B940004FF0000CC4F820C153F820C0CCF84825B3
:10B9500053F82020C2F8441553F8200001218160DB
:10B9600010BC7047BC47010002490148086070479D
:10B970003546526E000601407CB50C001D46164649
:10B98000014601D0601E00E00020CDE90010064B0A
:10B990006A462946304600F0DDFB002C02D0009AB2
:10B9A000002111707CBD0000E5C80000002101608D
:10B9B0000171704700210160416070474100080239
:10B9C00018BF04200A0E18BF40F001004FF07F425C
:10B9D00032EA010108BF40F00200012808BF05203B
:10B9E0007047000000487047D003002010B54FF0AA
:10B9F0000E402DED028BB0EE408A18EE104A00EB9F
:10BA00004400B0F1506F4AD84FF0FC40B0EB440F07
:10BA100022D2B0EEC80AF7EE000A30EEC00AF6EE07
:10BA2000000A60EE208A18EE900A08F0AFFB01EEE3
:10BA3000100A14F0004F1DBFDFED2D0A9FED2D0AF7
:10BA4000B1EE411ADFED2C0A08BF9FED2C0AF8EE8B
:10BA5000001A21EE218A05E0DFED290A68EE088A46
:10BA6000B0EE600A9FED271ADFED271A30EE080AC4
:10BA700048EE811A9FED251A08EEA11ADFED241A6F
:10BA800048EE811A9FED231A08EEA11A68EE281AD3
:10BA9000BDEC028B01EE810A30EE200A10BD4FF0A2
:10BAA000E440B0EB440F0CD918EE100AFFF786FF04
:10BAB000042808BF00F01AFAB0EE480ABDEC028B69
:10BAC00010BD4FF07F40B0EB440F07D2B0EE480AF4
:10BAD000BDEC028BBDE8104000F0F9B9012000F088
:10BAE00041FABDEC028BBDE8104000F0F7B9000050
:10BAF0000000C9BF22AAFDB90000C93F22AAFD3932
:10BB00000000000024FE1C3DC78AD83C1E67383D5B
:10BB10001B93993DAFAA2A3E70B54FF068422DEDB8
:10BB2000048BF0EE408A18EE900AB0EE608A18EEB0
:10BB3000101A02EB4003B3F1654F3CBF02EB410228
:10BB4000B2F1654F7DD200BFC0F3C753C1F3C752F6
:10BB50009A1A1B2A09DD10F0004F14BF9FED830ACB
:10BB60009FED830ABDEC048B70BD12F11A0F36DA1B
:10BB700011F0004F09D010F0004F0CBF9FED7D0A6F
:10BB80009FED7D0ABDEC048B70BD88EE889A19EE9E
:10BB9000100AFFF713FF042808BF00F0A7F918EEFA
:10BBA000900AFFF70BFF054618EE100AFFF706FF95
:10BBB000044619EE100AFFF701FF042D18BF052DEA
:10BBC00008D1042C18BF052C04D1002804BF022082
:10BBD00000F0C8F9B0EE490ABDEC048B70BD42001C
:10BBE000B2EB410F3AD910F0004F19BFDFED630AF5
:10BBF0009FED630ADFED630A9FED630AB0EE481A1A
:10BC00000A46B1EE688A80F00041F0EE418A1046A3
:10BC10000A1A5200B2F1807F34D2484010F0004F2F
:10BC2000DFED5A1A9FED5A2A1DBFBEEE001A70EEC4
:10BC3000E10A30EE420AB6EE001A08BF70EEA10A21
:10BC400000E040E008BF30EE020AB0EE682A01EEE4
:10BC5000482A08EE818AC2EE081A15E011F0004F5A
:10BC600004BF9FED4C0AF0EE400AD1D010F0004F17
:10BC700019BFDFED490A9FED490ADFED490A9FED43
:10BC8000490AC5E7C8EE881A21EEA11A9FED462A97
:10BC9000DFED462A41EE022A9FED452A01EE222AD7
:10BCA000DFED442A41EE022A9FED432ABDEC048BCE
:10BCB00001EE222A21EE811A01EE020A30EE210A5B
:10BCC00030EE200A70BD4FF07F42B2EB400F28BF2C
:10BCD000B2EB410F09D2F0EE480AB0EE680ABDECB3
:10BCE000048BBDE8704000F0F5B840EA01035B004A
:10BCF00008BF41F0FF410BD0B2EB400F08BFB2EBE1
:10BD0000410F08D120F0804008EE900A21F08041D8
:10BD100008EE101A18E7B2EB400F12BF5FEA4103BA
:10BD200040F0FF4001F000413FF40EAFB2EB410F95
:10BD300012BF5FEA400200F0004041F0FF413FF4D3
:10BD400003AF4A0092EA40033FF5FEAE002AACBFC3
:10BD50009FED1A0A9FED1A0A68EE808A28EE008A83
:10BD600018EE900A18EE101AEEE60000DB0FC9BFBD
:10BD7000DB0FC93FDB0F4940DB0F49C00000C9BFE3
:10BD800022AAFDB90000C93F22AAFD390060ED3E9C
:10BD9000C30ACE3700000000000049C022AA7DBAC5
:10BDA0000000494022AA7D3A2DAD65BD8FB8D53D32
:10BDB0000FB511BE61C84C3EA8AAAABE0000804FB4
:10BDC0000000802F10B52DED028BB0EE608AF0EEF2
:10BDD000408A18EE101A18EE900AFDF7BBF800F032
:10BDE0007040B0F1005F0CD018EE100A20F0004057
:10BDF000C0F1FF40C00F02BFB0EE480ABDEC028B9D
:10BE000010BDB0EE680ABDEC028B10BD10B52DED73
:10BE1000028BB0EE608AF0EE408A18EE101A18EE2F
:10BE2000900AFDF797F800F07040B0F1004F0CD089
:10BE300018EE100A20F00040C0F1FF40C00F02BF12
:10BE4000B0EE480ABDEC028B10BDB0EE680ABDEC46
:10BE5000028B10BD00B52DED048BB0EE409AF0EED4
:10BE6000609A83B051EC190BFCF7F3FF41EC180B0F
:10BE700018EE100A18EE901A8DED008B002818BFEE
:10BE80000120084320F00040C0F17F6000F1E04055
:10BE9000C00F14D019EE101A19EE900A8DED009B08
:10BEA000002918BF0121084320F00040C0F17F6045
:10BEB00000F1E040C00F04BF012000F053F8B0EEE5
:10BEC000480A03B0F0EE680ABDEC048B00BD30EE0A
:10BED000000A704730EE200A70470000DFED020ACA
:10BEE00080EEA00A70470000000000009FED020AEB
:10BEF00020EE000A7047000000000010002808BF74
:10BF0000704710F0FF0F0E4904D051FA80F000780E
:10BF1000401C704710F47F4F04D0C0F30720085C2A
:10BF20000930704710F47F0F04D0C0F30740085C5D
:10BF30001130704701EB1060007819307047000035
:10BF40001048010002E008C8121F08C1002AFAD1F7
:10BF500070477047002001E001C1121F002AFBD189
:10BF6000704700000149086070470000D0030020BE
:10BF70002DE9FF5F82B00021DDE90430020DDDF81C
:10BF800040B0034318D044F61050A2F2FF324243AF
:10BF90001514119801281FD0A5EB0B00401C5FEA77
:10BFA000000A4FF000064E4FDFF83891B046504679
:10BFB00015D5CAF1000413E0119801244AA3012801
:10BFC00001D16FEA0B010298119AC0E90031C0E972
:10BFD000024206B0BDE8F09FCBF10000DFE7044667
:10BFE0000021404A491842EB0450CDE9001012E00C
:10BFF000E00707D032463B4640464946FCF7ADFCD9
:10C000008046894632463B4610461946FCF7A5FC59
:10C0100006460F466410002CEAD1DDE90401DDE993
:10C020000023BAF1000F06DAFCF797FC42464B46B4
:10C03000FCF793FC05E0FCF702FD42464B46FCF79B
:10C04000FEFC04460E460022284BFCF76BFF03D88B
:10C050004FF0FF30014607E00022254B20463146D5
:10C06000FCF7D4FBFCF746FF102409E0002C0ADBA8
:10C070000A220023FCF77CF9039B30321A55641E18
:10C0800050EA0102F2D1641C039AC4F11103144472
:10C09000119A012A03D0012208430DD10AE0084376
:10C0A00004D000204FF0110B119072E7A3EB0B05A9
:10C0B0006D1E0DE05B4504DD4FF0000205F101054A
:10C0C00004E003DA4FF00002A5F10105002AECD0EC
:10C0D00002981199C0E90231C0E9004579E70000F2
:10C0E000000014400000F03F300000000000F0436A
:10C0F0000000E03F002A04BF4FF0FF30704710B54A
:10C10000036C114652881B6809889847002010BDAF
:10C1100070B51D461400034601D0042D01D0002047
:10C1200070BD1A6C2188926890476080284670BD67
:10C1300010B51C461100034601D0042C01D000208C
:10C1400010BD186C4A880988D0F804C01846E0472A
:10C15000204610BD2DE9FF4F95B09A468846064609
:10C160000025EEE1252877D100242746F94A012150
:10C17000039400E0044316F8013F203B01FA03F06A
:10C180001042F7D130782A2811D06FF02F03307881
:10C19000A0F13002092A16D8039A44F0020402EBF7
:10C1A000820203EB42021044761C0390EFE758F83A
:10C1B000042B0392002A03DA504244F40054039003
:10C1C00044F00204761C30782E2816D116F8010FA0
:10C1D00044F004042A280DD06FF02F023078A0F12B
:10C1E0003003092B09D807EB870302EB4303C71879
:10C1F000761CF3E758F8047B761C30786C280FD057
:10C2000006DC4C2817D068280DD06A2814D104E029
:10C21000742810D07A280FD10DE044F400140AE0FD
:10C2200044F4801401E044F440147278824202D154
:10C2300004F58014761C761C307866280BD013DC4D
:10C24000582877D009DC002875D04528F6D0462834
:10C25000F4D047281AD193E118E0632835D0642838
:10C2600079D0652812D18BE1702873D008DC67285B
:10C27000F1D069286FD06E280DD06F2806D1ACE0C0
:10C2800073282CD0752874D0782853D0524617992B
:10C2900090476D1C54E1C4F30250022809D00328D2
:10C2A0000DD0D8F8001004280DD00D6008F1040856
:10C2B00046E1D8F80010EA17C1E90052F6E7D8F8CD
:10C2C00000100D80F2E70D70F0E718F8041B8DF8F0
:10C2D000001000208DF80100EB46012003E058F823
:10C2E00004BB4FF0FF3061074FF0000102D40DE0B6
:10C2F00009F101018946B9420FDA8145F8DB1BF8E3
:10C3000009100029F4D108E009F1010189468142B0
:10C31000FADB1BF809100029F6D103985346A0EB6D
:10C32000090721463846179A00F080FA284400EBA6
:10C33000090507E044E008E10DE01BF8010B524657
:10C3400017999047B9F10109F7D25346214638466B
:10C35000179AF2E039E00A21C4F302524FF0000BC1
:10C360000091022A06D058F8040BC117032A09D0FD
:10C370000AE023E008F1070020F00702F2E80201DA
:10C38000904605E000B2C117042A01D140B2C1179E
:10C39000002906DA0A460021404261EB02012D2203
:10C3A00002E0220504D52B228DF80420012203E0AF
:10C3B000E20701D02022F7E7914657E00A2100E08A
:10C3C00010214FF0000B00910BE010214FF0000BFB
:10C3D00044F004040827009103E008204FF0000B0C
:10C3E0000090C4F30252022A05D058F8040B002131
:10C3F000032A08D008E008F1070020F00702F2E85D
:10C400000201904603E080B2042A00D1C0B24FF08E
:10C41000000922072AD53278702A07D0DDF800C03B
:10C420008CF0100C5CEA0B0C05D00EE040228DF86D
:10C430000420012208E050EA010306D030238DF8E1
:10C4400004308DF8052002229146009B83F00803FA
:10C4500053EA0B030AD150EA010201D1620705D564
:10C4600030228DF804204FF001097F1E3278582ABF
:10C4700004D039A20C920CAA02920BE03BA2F9E77D
:10C480005B46009AFBF774FF0C9B9B5C029A521E62
:10C490000292137050EA0102F2D1029804A9081A1C
:10C4A00000F1200B600702D524F4803400E001275E
:10C4B0005F4502DDA7EB0B0000E0002000EB0B0165
:10C4C000009003984944401A0390E00306D4534671
:10C4D0002146179A039800F0A9F90544002706E0C1
:10C4E00001A85246C05D179990476D1C7F1C4F45AF
:10C4F000F6DBE0030CD553462146179A039800F06B
:10C5000095F9054404E030205246179990476D1C78
:10C510000099481E00900029F5DC08E00298029975
:10C5200052460078491C0291179990476D1CBBF147
:10C530000001ABF1010BF1DC5BE100F065F90544B2
:10C54000761C307800287FF40DAE19B02846BDE87F
:10C55000F08F00000928010030313233343536378E
:10C56000383961626364656600000000303132333F
:10C5700034353637383941424344454600000000DF
:10C58000600700D4062708F1070020F00700F0E854
:10C590000223804603F0004C5FEA0C0001D097A014
:10C5A00009E0200501D596A005E0E00701D095A09F
:10C5B00001E0AFF24C001390307823F0004365287F
:10C5C0000CD006DC452809D046281DD047287FD14D
:10C5D0003BE0662818D067287AD136E00021112F79
:10C5E00001DB112000E0781CCDE9000104A90CA8B2
:10C5F000FFF7BEFCDDE90D010C9A4FF0000B07F1CF
:10C600000109109200914EE04FF000400097CDE9F3
:10C61000011004A90CA8FFF7ABFCDDE90D020C9B8F
:10C620000F994FF0000B91461093009211B9791CAD
:10C6300000EB0109B7EB090003D4C0F1FF3B07F1A0
:10C640000109A9EB0700019042E0012F00DA012760
:10C650000021112F01DD112000E03846CDE9000155
:10C6600004A90CA8FFF784FCDDE90D010C9A0091E8
:10C670004FF0000BB946109221070FD4009A4A459B
:10C6800003DA914601E0A9F10109B9F1010F05DDD5
:10C69000109AA9F10101515C3029F4D0B84202DAB4
:10C6A00010F1040F03DA0121CDE9011010E0002898
:10C6B00003DC8344A9EB000102E0411C494500DD95
:10C6C0008946A0EB0B00401C01904FF00040029007
:10C6D000200705D40198484502DB4FF0FF30019058
:10C6E00000208DF84B0002980DF14B07B0F1004F80
:10C6F00025D002200C902B200D90029800280CDAF7
:10C70000404202902D200D9007E00A210298FCF78C
:10C7100034FA3031029007F8011D0C99481E0C9034
:10C720000029F2DC02980028EFD1791E0D980870DC
:10C73000307800F0200040F0450007F8020D11A805
:10C74000C01BC01D02901398007800B1012000EBBF
:10C750000901019801EBE071029801440398401A25
:10C76000401E0390E00306D453462146179A0398CF
:10C7700000F05CF805441398007818B152461799F8
:10C7800090476D1CE00323D553462146179A039822
:10C7900000F04CF805441BE0BBF1000F07DB0098EC
:10C7A000584504DD1098179910F80B0001E017990F
:10C7B00030205246904701980BF1010B401E05F1C5
:10C7C0000105019004D12E205246179990476D1C07
:10C7D000B9F10001A9F10109DEDC05E017F8010B50
:10C7E0005246179990476D1C0299481E02900029E5
:10C7F000F4DC53462146179A03989EE62D0000006C
:10C800002B000000200000002DE9F0410446002527
:10C810001E461746880404D405E039462020B04758
:10C820006D1C641EF9D52846BDE8F0812DE9F04164
:10C83000044600251E469046C80301D5302700E077
:10C840002027880404D505E041463846B0476D1CD2
:10C85000641EF9D52846BDE8F081000070B582B0AD
:10C860009C4611460446DDE90632DDE908651430D0
:10C8700040600060C4E9081CC4E90A32232118465C
:10C8800005F0F2FDD4E90A010844021FD4E90801C9
:10C89000114B05F029FCE06184F8366084F83560BE
:10C8A00000206564A063A564206384F83400A06759
:10C8B000E067009023460190084A194604F14C00B5
:10C8C00007F0DCF90648816800291CBF204688472C
:10C8D000002002B070BD000059360100753901001A
:10C8E000D80200204A68002A06D00A68531C0B6050
:10C8F00010704868401E4860704710B501F011FB89
:10C90000044601F00CFB002C04BF002010BD4FF4C6
:10C910007A71A0FB010122460023FBF729FD10BD1F
:10C92000094A1278002A04BF0020704710B5044657
:10C9300001F022F92146054800F090F9044601F083
:10C940001DF9204610BD0000A8030020EC230020A4
:10C95000084A1278002A08BF704710B5044601F053
:10C960000BF92146044800F09DF9BDE8104001F0A4
:10C9700005B90000A8030020EC2300200948007836
:10C98000002808BF704710B501F0F6F8FFF7B5FFB3
:10C990000146054800F0DAF9044601F0EFF82046B8
:10C9A00010BD0000A8030020EC230020014800F087
:10C9B000EFB90000EC2300200148D0F8000B7047CD
:10C9C000EC2300200148407D70470000EC2300204C
:10C9D0000148007870470000EC23002001484078AF
:10C9E00070470000EC23002008480078002808BFAA
:10C9F000704710B501F0C0F80548D0F8B41A491CCA
:10CA0000C0F8B41ABDE8104001F0B8B8A80300207F
:10CA1000EC23002030B585B00024DDE9085C0094EB
:10CA200001948DF80000ADF80430ADF806508DF893
:10CA300001100A4D0294039404948DF802208DF89D
:10CA400008C0D5E901236946054800F0A7F9002888
:10CA500006BF012028702C7005B030BDA80300204F
:10CA6000EC230020002808BF7047816A11F4807F02
:10CA70001CBF0120704711F4007F12BF002090F806
:10CA8000B40000F0010070470A480078002808BF91
:10CA9000704710B501F070F8FFF72FFF0146064808
:10CAA00000F032FA044601F069F8002C0CBF0120B6
:10CAB000002010BDA8030020EC23002070B5044620
:10CAC0000D480D4600784042204212D0022D10D36E
:10CAD00001F052F8FFF711FF03462A4621460748A6
:10CAE00000F08FFA044601F049F8002C04BF012041
:10CAF00070BD002070BD0000A8030020EC230020C2
:10CB000010B501F0B3F928B901F04CFA002804BFC0
:10CB1000012010BD002010BD2DE9F041044617484A
:10CB200084B000784042204204BF04B0BDE8F081E8
:10CB3000B4F8B000C5B2C0F307261148017A204608
:10CB400000F020F80746204600F039F880462046DD
:10CB500000F03AF8044601F00FF8FFF7CEFECDF8EA
:10CB60000080CDE901403B4632462946044800F0AA
:10CB700020FB04B0BDE8F04101F000B8A80300209C
:10CB8000EC23002010B5C0B1826A12F4807F07D177
:10CB900012F4007F11D190F8B40010F0010F0CD006
:10CBA000084607F073FB002808BF10BD302107F0CE
:10CBB00065FBBDE8104007F073BB002010BD0028E6
:10CBC0001CBF806A000C704768B1816A11F4807FD5
:10CBD00007D111F4007F06D190F8B40010F0010FD6
:10CBE00001D0302070471D2070470000014AC2E983
:10CBF00001017047A803002010B5044609480078D9
:10CC00004042204008BF10BD00F0B6FFFFF775FEA0
:10CC100001462246044800F02BFB044600F0AEFF1C
:10CC2000204610BDA8030020EC230020094A1278FA
:10CC3000002A04BF0020704710B5044600F09CFF96
:10CC40002146054800F039FB044600F097FF2046D6
:10CC500010BD0000A8030020EC23002030B4002801
:10CC60001FBFC469002C90F80C2B002A02BF0020C3
:10CC700030BC7047827894F805C00AB1624500D292
:10CC80006246C388002B08BF1D23002908BF64210A
:10CC900004D0B1F5C87F88BF4FF4C871204630BCBE
:10CCA00007F0C6BA70B50E4604004FF0000508BF85
:10CCB00070BD2EB38C213046FBF7B2FBD4F8B40A1A
:10CCC0003060D4F8B80A7060002000EB800104EBFB
:10CCD000011191F8A82472B104EB8002D2F8C03A95
:10CCE0004BB191F8A93406EBC5010B72D2F8C02AFA
:10CCF000CA60691CCDB2401C1028E6DB86F888505B
:10CD00000020C4F8B40AC4F8B80AC4F8C00AC4F8C9
:10CD1000C40AC4F8C80AC4F8CC0AC4F8D00AC4F8D3
:10CD2000D40AC4F8D80AC4F8DC0AC4F8E00AC4F883
:10CD3000E40AC4F8E80AC4F8EC0AC4F8F00AC4F833
:10CD4000F40AC4F8F80AC4F8FC0A70BD10B45FEA2B
:10CD5000000C4FF0000009BF0020002210BC7047FB
:10CD600002EB82030CEB031393F8A8445CB1D3F8F5
:10CD7000AC34CB1AB3F57A7F94BF00230123002B88
:10CD800004BF401CC0B2521C102AE9DB10BC704723
:10CD9000002818BFB0F8AA0970470000002812BF89
:10CDA00000294FF0FF3070472DE9F0410D4688B063
:10CDB0001E46174604464FF43161FBF731FB95E8F8
:10CDC0000F1084E80F106878002808BF012002D0F7
:10CDD000102888BF10206070C4F8047BC4F8086B6A
:10CDE00029782175A9786175A075A8882083287A8B
:10CDF000A076287A07F04AFAE061A988204603F075
:10CE0000E5FF002802BF6FF0030008B0BDE8F08125
:10CE1000287884F82000002784F8217014F595689C
:10CE200004F6A8101EBF0028078000260BD006EBD2
:10CE3000860008EB00104FF05001FBF7F1FA701C70
:10CE4000C6B2102EF3D3D4F8040B002853D0406898
:10CE5000002834D00097019702970397049705970D
:10CE600006970797287A00280CBF012000208DF82C
:10CE7000000028784FF4807141EA40000190802042
:10CE80008DF808001F48039004208DF8110002213E
:10CE90008DF818008DF812108DF81C00D4F8040BD2
:10CEA000D4F8081B42686846904700281EBF6FF000
:10CEB000010008B0BDE8F081D4F8040BD8B1D4F873
:10CEC000040BD0F820C0BCF1000F14D0002108469C
:10CED000D4F8083BD4F8002BE04760B1D4F8040B39
:10CEE000816800291CBFD4F8080B88476FF0020046
:10CEF00008B0BDE8F081012084F80C0B08B00020D8
:10CF0000BDE8F0812143658730B583B00B4604004E
:10CF100019BF94F80C0B00284FF0FF3003B008BF86
:10CF200030BDD4F8B00A04F1200100F10100C4F8CA
:10CF3000B00A207884F820004FF47A706362CDE95B
:10CF40000001627804F6A81104F5956000F07CFAFF
:10CF5000D4F8B00A012808D903208DF80800E26847
:10CF600002A8002A1CBF216990470025A4F8A859EF
:10CF7000D4F8040B002839D0C16859B1D4F8080B93
:10CF8000884700281EBF6FF0010003B030BDD4F801
:10CF9000040B58B3036973B104F62D210120D4F8B2
:10CFA000082B984700281EBF6FF0020003B030BD69
:10CFB000D4F8040BD0B1416959B1D4F8080B8847B3
:10CFC00000281EBF6FF0030003B030BDD4F8040B7F
:10CFD00060B1826952B104F6AC10D4F8081B9047D6
:10CFE00000281EBF6FF0040003B030BD8DF808505C
:10CFF000E26802A8002A1CBF21699047002003B004
:10D0000030BD2DE9F04F95B0994616460D46040007
:10D010001DBF94F80C0B0028002D4FF0FF3004BF0B
:10D0200015B0BDE8F08F022E3EBF6FF0010015B0C5
:10D03000BDE8F08F482102A8FBF7F2F92978701EAD
:10D0400009294FD008291EBF6FF0020015B0BDE8B6
:10D05000F08F81B202AA681C03F014FA00281EBFE8
:10D060006FF0030015B0BDE8F08F14F59566627897
:10D0700004F6A8174FF47A700DF1080A4FF0FF3844
:10D080004FF0010B18BF002F2AD000904B463946B5
:10D09000304600F033F99DF808203146002505EBB5
:10D0A000850001EB0010037813B14078904204D062
:10D0B000681CC5B2102DF2D34546002D21DA002E92
:10D0C00018BF002509D005EB850106EB011000789B
:10D0D00020B1681CC5B2102DF5D34546002D07DAE6
:10D0E00045461FE081B202AA681C03F0FDF8B5E7CF
:10D0F00005EB850006EB001080F800B09AF80010F0
:10D10000417005EB850006EB001606F10800482289
:10D110005146FBF76CF9C6F8049039880BFA05F014
:10D1200008433880002DBEBF6FF0040015B0BDE885
:10D13000F08FC4F82490D4F8B80A401CC4F8B80A98
:10D14000102D06DA04EB8500D0F8C01A491CC0F88F
:10D15000C01A8DF804B09DF808008DF80500D4F8C9
:10D16000040B00281DBFC1690029D4F8080B00205A
:10D1700018BF88478DF80600E26801A8002A1CBF86
:10D1800021699047D4F8040B00281CBF8269002A4B
:10D190000BD004F6AC10D4F8081B904700281EBF33
:10D1A0006FF0050015B0BDE8F08F002015B0BDE8A8
:10D1B000F08FF8B50400DDE907C5069E19BF94F8A5
:10D1C0000C0B00284FF0FF30F8BD20782170002AAA
:10D1D00008BF012202D0102A88BF10226270A370FB
:10D1E000A4F806C02175A27584F82010884217D0D3
:10D1F00014F5956704F6A81018BF00281AD04FF050
:10D20000000101800D4605EB850007EB00104FF093
:10D210005001FBF705F9681CC5B2102DF3D309E0E6
:10D220004FF47A7000902B4604F6A81104F595602F
:10D2300000F064F8002C1CBF94F80C0B002815D0EB
:10D240003146204603F0C2FD00281FBFD4F8040B6E
:10D250000028D0F824C0BCF1000F07D04FF0000127
:10D260000846D4F8083BD4F8002BE0470020F8BD6E
:10D2700070B582B00E46040015461DBF94F80C0B25
:10D280000028002D002004BF02B070BD4FF4916152
:10D290001046FBF7C5F8207828704FF47A706E605E
:10D2A000CDE900056278334604F6A81104F59560CF
:10D2B00000F0CAF802B0012070BD70B5040019BFBB
:10D2C00094F80C0B0028002070BD204603F07EFD72
:10D2D000051E08BF70BDD4F8040B00281CBFD0F891
:10D2E00024C0BCF1000F07D04FF000010846D4F86D
:10D2F000083BD4F8002BE047284670BD2DE9F047E5
:10D300009846089F92460E4605004FF0010918BF47
:10D31000002E29D0002F18BF002425D004EB840153
:10D3200005EB0112107800281CBF5068002F17D0A1
:10D33000A8EB0001B9428CBF0120002000281CBFCF
:10D340003046002D0CD0002818BF102C08D20188C0
:10D3500009FA04F39943318050211046FBF760F835
:10D36000601CC4B2102CD9D3BAF1000F08BF4FF023
:10D37000010A04D0BAF1100F88BF4FF0100A002143
:10D380000C46002D0CBF214600200CD000EB800382
:10D3900005EB03121278002A1CBF491CC9B2401CBD
:10D3A000C0B21028F2D38A4534BF4FF0FF37BDE832
:10D3B000F0874FF0FF310023002D0CBF39460020CD
:10D3C00014D000EB800C05EB0C1292F800C0BCF1FD
:10D3D000000F07D0002903DBD2F804C09C4501D21E
:10D3E00053680146401CC0B21028EAD30029B8BFD8
:10D3F000BDE8F087C8B2002D1CBF002E10280CD24B
:10D40000318809FA00F221EA020200EB800105EB03
:10D41000011032805021FBF703F80021002D0CBFD2
:10D42000214600200CD000EB800305EB031212789C
:10D43000002A1CBF491CC9B2401CC0B21028F2D33C
:10D440008A45B6D3BDE8F0872DE9F04387B00500E3
:10D45000DDE90E074FF0000419BF0029002F00205E
:10D4600007B008BFBDE8F08300902846FFF746FFED
:10D470004FF4906107F10800FAF7D2FF00200DF198
:10D48000080800EB800105EB0111097819B108F8D3
:10D490000400611CCCB2401CC0B21028F1D30120A2
:10D4A000012C1FD918F800C001460CEB8C0205EBCB
:10D4B000021303E008F80120491EC9B261B108EB6C
:10D4C000010293F8019012F8012C02EB820605EBA1
:10D4D000061676784E45EDD8401CC0B208F801C05B
:10D4E000A042DFD30026002C13D918F806004822EA
:10D4F00000EB800005EB001000F1080106EBC60010
:10D5000007EBC0000830FAF772FF701CC6B2B442D5
:10D51000EBD87C7007B02046BDE8F08310B500F072
:10D520002BFB0648016800291BBF40680028002427
:10D53000012400F023FB204610BD0000B01D002098
:10D5400010B5044600F018FB084934B1D4E90002D4
:10D55000A3688B60C1E9000203E000200860486016
:10D560008860BDE8104000F009BB0000B01D00203D
:10D5700010B5044600F000FB02480470BDE81040FE
:10D5800000F0FCBA6C03002003490968002908BFB9
:10D59000704700F021B800000400002008B500909A
:10D5A0001168FF220648FAF746FF0549002081F876
:10D5B000FF0004486946006800F0ECFB002008BD4D
:10D5C000D403002004000020024AC2E90001002028
:10D5D00090607047D02200202DE9F84F484EDFF8C8
:10D5E00024914FF0040A31784FF00008052928BF34
:10D5F000BDE8F88FDFE801F0030B152E7E0041280F
:10D600000CBF0120BDE8F88F3070BDE8F88F5428BA
:10D6100006BF0220307086F80080C6F80480BDE89E
:10D62000F88F0D2814BF0A280320EDD07168FF2958
:10D6300005D209F80100481C7060BDE8F88F4FF46E
:10D6400080713048C6F80480FAF7EAFE86F800A038
:10D65000BDE8F88F0D2818BF0A282FD170682A4F0F
:10D660004FF0000409F800807868002826D93D2191
:10D670002448FAF7ECFE002808BF756805D03D2164
:10D680002048FAF7E4FEA0EB0905386850F83400AA
:10D69000FAF7E7FEA84205D3386850F83400FAF7E5
:10D6A000E0FE054638682A46164950F83400FAF775
:10D6B000EDFE48B17868641CA042D8D8C6F8048052
:10D6C00086F80080BDE8F88F386850F83400FAF723
:10D6D000C8FE48440090BB6833B138680AEBC40107
:10D6E0006A464058012198474FF480710548FAF77F
:10D6F00097FEE3E70D2818BF0A28DFD0BDE8F88FB2
:10D7000078030020D0210020D02200200149886029
:10D7100070470000D022002010B501F001FC00206D
:10D7200010BD10B501F0E8FD002010BD00207047CD
:10D7300070B403880025002A88BF41F2210612D95F
:10D7400011F805C0002483EA0C234FEA430C13F4BC
:10D75000004F18BF8CEA060C6346641C082CF4D3F7
:10D760006D1C9542ECD3038070BC704710B501214D
:10D770002DED028B82B0B7EE008A009101F0BCFF64
:10D780000446694600F098F862880021002AC8BF64
:10D7900063680ADD01FB021003EB8000491C90ED79
:10D7A000000A8A4220EE088AF4DC9DED000A204639
:10D7B000B8EEC00A28EE008A04F0CEF902B0B0EE4E
:10D7C000480ABDEC028B10BD01490020487070472B
:10D7D0008800002070B50C4605460BA1FAF748FEFC
:10D7E00018B10CA12846FAF743FE23880022002B2B
:10D7F000CCBF618870BD00208142C8BF401CFBDCEB
:10D80000521C9342F7DC70BD6E6F6865616465728F
:10D81000000000006D61746C6162000070B5144618
:10D8200005460AA1FAF724FE48B102220AA12846B9
:10D83000FAF72CFE18B109A12846FAF719FE0020C4
:10D84000A04238BF401CFBD370BD00006E6F6865FE
:10D8500061646572000000002F2B00006D61746C24
:10D8600061620000428803889FED120A00215A433A
:10D87000002A0ADD426802EB8102491C82ED000A9F
:10D88000428803885A438A42F4DC42880021002AF5
:10D89000CCBFB7EE000A70474388426801FB031310
:10D8A00002EB8302491C82ED000A42888A42F3DCC3
:10D8B0007047000000000000F0B401220A604288B6
:10D8C0000023002A7EDD4488456803FB043205EB13
:10D8D000820292ED000AB5EEC00AF1EE10FA3BD1D9
:10D8E000028803F1010C624535DD0CFB043605EBC3
:10D8F000860696ED000AB5EEC00AF1EE10FA26D0C3
:10D900006245C8BF9A421EDD0022002C1BD9458803
:10D9100044680CFB052603FB052504EB860604EB97
:10D92000850496ED000AD4ED000AC6ED000A46888B
:10D93000456803FB062405EB8404521C84ED000AB1
:10D9400044889442E3D80A6852420A60BBE70CF16B
:10D95000010C6245C9DC43D0028803F1010C624529
:10D960003EDDA4B20CFB0435426802EB8505D5ED23
:10D97000000AF5EEC00AF1EE10FA04D10288521E38
:10D980009A4228D12CE003FB043502EB850292ED8C
:10D99000001A028880EE810A9342D8BF94451ADCAF
:10D9A0000022002C17DD458844680CFB052604EB9B
:10D9B000860603FB052504EB8504D6ED000A94EDED
:10D9C000001A00E011E041EE400A521CC6ED000AC8
:10D9D00044889442E7DC02880CF1010C6245C0DC0B
:10D9E000A2B25B1C9A423FF76EAFF0BC00207047BA
:10D9F000162000F021F90021162000F023F901255E
:10DA00004FF4FA76FEF7BAFF05EB8000B6FBF0F4B0
:10DA10000121162000F016F9600800F0B1F800218D
:10DA2000162000F00FF9204600F0AAF8EAE70000FF
:10DA3000002818BF7047002908BF704710B5054C73
:10DA4000E06800F0A7F9A068BDE81040022100F0EE
:10DA5000CAB8000078000020074B00281CBFD3F88C
:10DA600020C0C0F800C000291CBF586A0860002A06
:10DA70001CBF986A106070478800002030B40D4CBD
:10DA8000DDF808C000281CBFE568056000291CBF40
:10DA900020690860002A1CBF60691060002B1CBF51
:10DAA000A0691860BCF1000F1CBFE069CCF8000051
:10DAB00030BC704788000020104830B4C368026949
:10DAC0004169D0F82CC0A3EB0C05D0F830C0A2EB14
:10DAD0000C04D0F834C0C362C0E90C21A1EB0C0CDB
